{
  "_format": "hh-sol-artifact-1",
  "contractName": "Crowdfunding",
  "sourceName": "contracts/Crowdfunding.sol",
  "abi": [
    {
      "inputs": [
        {
          "internalType": "uint256",
          "name": "goal",
          "type": "uint256"
        },
        {
          "internalType": "uint256",
          "name": "durationInSeconds",
          "type": "uint256"
        },
        {
          "internalType": "address",
          "name": "tokenAddress",
          "type": "address"
        },
        {
          "internalType": "uint256",
          "name": "earlyBirdLimit",
          "type": "uint256"
        },
        {
          "internalType": "uint256",
          "name": "earlyBirdBonusRate",
          "type": "uint256"
        }
      ],
      "stateMutability": "nonpayable",
      "type": "constructor"
    },
    {
      "anonymous": false,
      "inputs": [
        {
          "indexed": false,
          "internalType": "bool",
          "name": "success",
          "type": "bool"
        }
      ],
      "name": "CampaignFinalized",
      "type": "event"
    },
    {
      "anonymous": false,
      "inputs": [
        {
          "indexed": true,
          "internalType": "address",
          "name": "investor",
          "type": "address"
        },
        {
          "indexed": false,
          "internalType": "uint256",
          "name": "amount",
          "type": "uint256"
        },
        {
          "indexed": false,
          "internalType": "uint256",
          "name": "tokenAmount",
          "type": "uint256"
        },
        {
          "indexed": false,
          "internalType": "bool",
          "name": "isEarlyBird",
          "type": "bool"
        }
      ],
      "name": "Invested",
      "type": "event"
    },
    {
      "anonymous": false,
      "inputs": [
        {
          "indexed": true,
          "internalType": "address",
          "name": "investor",
          "type": "address"
        },
        {
          "indexed": false,
          "internalType": "uint256",
          "name": "amount",
          "type": "uint256"
        }
      ],
      "name": "Refunded",
      "type": "event"
    },
    {
      "anonymous": false,
      "inputs": [
        {
          "indexed": true,
          "internalType": "address",
          "name": "investor",
          "type": "address"
        },
        {
          "indexed": false,
          "internalType": "uint256",
          "name": "amount",
          "type": "uint256"
        }
      ],
      "name": "TokensClaimed",
      "type": "event"
    },
    {
      "anonymous": false,
      "inputs": [
        {
          "indexed": true,
          "internalType": "address",
          "name": "owner",
          "type": "address"
        },
        {
          "indexed": false,
          "internalType": "uint256",
          "name": "amount",
          "type": "uint256"
        }
      ],
      "name": "Withdrawn",
      "type": "event"
    },
    {
      "inputs": [],
      "name": "COOLDOWN_PERIOD",
      "outputs": [
        {
          "internalType": "uint256",
          "name": "",
          "type": "uint256"
        }
      ],
      "stateMutability": "view",
      "type": "function"
    },
    {
      "inputs": [
        {
          "internalType": "address",
          "name": "user",
          "type": "address"
        }
      ],
      "name": "canUserClaim",
      "outputs": [
        {
          "internalType": "bool",
          "name": "",
          "type": "bool"
        },
        {
          "internalType": "string",
          "name": "",
          "type": "string"
        }
      ],
      "stateMutability": "view",
      "type": "function"
    },
    {
      "inputs": [
        {
          "internalType": "address",
          "name": "user",
          "type": "address"
        }
      ],
      "name": "canUserRefund",
      "outputs": [
        {
          "internalType": "bool",
          "name": "",
          "type": "bool"
        },
        {
          "internalType": "string",
          "name": "",
          "type": "string"
        }
      ],
      "stateMutability": "view",
      "type": "function"
    },
    {
      "inputs": [],
      "name": "claimTokens",
      "outputs": [],
      "stateMutability": "nonpayable",
      "type": "function"
    },
    {
      "inputs": [],
      "name": "endCampaignEarly",
      "outputs": [],
      "stateMutability": "nonpayable",
      "type": "function"
    },
    {
      "inputs": [],
      "name": "finalizeCampaign",
      "outputs": [],
      "stateMutability": "nonpayable",
      "type": "function"
    },
    {
      "inputs": [],
      "name": "getBalance",
      "outputs": [
        {
          "internalType": "uint256",
          "name": "",
          "type": "uint256"
        }
      ],
      "stateMutability": "view",
      "type": "function"
    },
    {
      "inputs": [],
      "name": "getCampaignInfo",
      "outputs": [
        {
          "internalType": "uint256",
          "name": "target",
          "type": "uint256"
        },
        {
          "internalType": "uint256",
          "name": "raised",
          "type": "uint256"
        },
        {
          "internalType": "uint256",
          "name": "remaining",
          "type": "uint256"
        },
        {
          "internalType": "uint256",
          "name": "participantCount",
          "type": "uint256"
        },
        {
          "internalType": "bool",
          "name": "isSuccessful",
          "type": "bool"
        },
        {
          "internalType": "uint256",
          "name": "earlyBirdRemaining",
          "type": "uint256"
        }
      ],
      "stateMutability": "view",
      "type": "function"
    },
    {
      "inputs": [],
      "name": "getContributors",
      "outputs": [
        {
          "internalType": "address[]",
          "name": "",
          "type": "address[]"
        }
      ],
      "stateMutability": "view",
      "type": "function"
    },
    {
      "inputs": [],
      "name": "getCooldownInfo",
      "outputs": [
        {
          "internalType": "uint256",
          "name": "remainingTime",
          "type": "uint256"
        },
        {
          "internalType": "bool",
          "name": "isActive",
          "type": "bool"
        }
      ],
      "stateMutability": "view",
      "type": "function"
    },
    {
      "inputs": [],
      "name": "getDeadline",
      "outputs": [
        {
          "internalType": "uint256",
          "name": "",
          "type": "uint256"
        }
      ],
      "stateMutability": "view",
      "type": "function"
    },
    {
      "inputs": [],
      "name": "getEarlyBirdBonusRate",
      "outputs": [
        {
          "internalType": "uint256",
          "name": "",
          "type": "uint256"
        }
      ],
      "stateMutability": "view",
      "type": "function"
    },
    {
      "inputs": [],
      "name": "getEarlyBirdLimit",
      "outputs": [
        {
          "internalType": "uint256",
          "name": "",
          "type": "uint256"
        }
      ],
      "stateMutability": "view",
      "type": "function"
    },
    {
      "inputs": [],
      "name": "getGoal",
      "outputs": [
        {
          "internalType": "uint256",
          "name": "",
          "type": "uint256"
        }
      ],
      "stateMutability": "view",
      "type": "function"
    },
    {
      "inputs": [],
      "name": "getInvestorCount",
      "outputs": [
        {
          "internalType": "uint256",
          "name": "",
          "type": "uint256"
        }
      ],
      "stateMutability": "view",
      "type": "function"
    },
    {
      "inputs": [],
      "name": "getIsSuccessful",
      "outputs": [
        {
          "internalType": "bool",
          "name": "",
          "type": "bool"
        }
      ],
      "stateMutability": "view",
      "type": "function"
    },
    {
      "inputs": [],
      "name": "getIsWithdrawn",
      "outputs": [
        {
          "internalType": "bool",
          "name": "",
          "type": "bool"
        }
      ],
      "stateMutability": "view",
      "type": "function"
    },
    {
      "inputs": [],
      "name": "getOwner",
      "outputs": [
        {
          "internalType": "address",
          "name": "",
          "type": "address"
        }
      ],
      "stateMutability": "view",
      "type": "function"
    },
    {
      "inputs": [
        {
          "internalType": "address",
          "name": "user",
          "type": "address"
        }
      ],
      "name": "getPendingTokens",
      "outputs": [
        {
          "internalType": "uint256",
          "name": "",
          "type": "uint256"
        }
      ],
      "stateMutability": "view",
      "type": "function"
    },
    {
      "inputs": [],
      "name": "getRaisedAmount",
      "outputs": [
        {
          "internalType": "uint256",
          "name": "",
          "type": "uint256"
        }
      ],
      "stateMutability": "view",
      "type": "function"
    },
    {
      "inputs": [],
      "name": "getRemainingTime",
      "outputs": [
        {
          "internalType": "uint256",
          "name": "",
          "type": "uint256"
        }
      ],
      "stateMutability": "view",
      "type": "function"
    },
    {
      "inputs": [],
      "name": "i_owner",
      "outputs": [
        {
          "internalType": "address",
          "name": "",
          "type": "address"
        }
      ],
      "stateMutability": "view",
      "type": "function"
    },
    {
      "inputs": [],
      "name": "invest",
      "outputs": [],
      "stateMutability": "payable",
      "type": "function"
    },
    {
      "inputs": [],
      "name": "refund",
      "outputs": [],
      "stateMutability": "nonpayable",
      "type": "function"
    },
    {
      "inputs": [],
      "name": "s_currentEarlyBirdCount",
      "outputs": [
        {
          "internalType": "uint256",
          "name": "",
          "type": "uint256"
        }
      ],
      "stateMutability": "view",
      "type": "function"
    },
    {
      "inputs": [],
      "name": "s_deadline",
      "outputs": [
        {
          "internalType": "uint256",
          "name": "",
          "type": "uint256"
        }
      ],
      "stateMutability": "view",
      "type": "function"
    },
    {
      "inputs": [],
      "name": "s_earlyBirdBonusRate",
      "outputs": [
        {
          "internalType": "uint256",
          "name": "",
          "type": "uint256"
        }
      ],
      "stateMutability": "view",
      "type": "function"
    },
    {
      "inputs": [],
      "name": "s_earlyBirdLimit",
      "outputs": [
        {
          "internalType": "uint256",
          "name": "",
          "type": "uint256"
        }
      ],
      "stateMutability": "view",
      "type": "function"
    },
    {
      "inputs": [],
      "name": "s_goal",
      "outputs": [
        {
          "internalType": "uint256",
          "name": "",
          "type": "uint256"
        }
      ],
      "stateMutability": "view",
      "type": "function"
    },
    {
      "inputs": [
        {
          "internalType": "address",
          "name": "",
          "type": "address"
        }
      ],
      "name": "s_hasRefunded",
      "outputs": [
        {
          "internalType": "bool",
          "name": "",
          "type": "bool"
        }
      ],
      "stateMutability": "view",
      "type": "function"
    },
    {
      "inputs": [
        {
          "internalType": "uint256",
          "name": "",
          "type": "uint256"
        }
      ],
      "name": "s_investorAddresses",
      "outputs": [
        {
          "internalType": "address",
          "name": "",
          "type": "address"
        }
      ],
      "stateMutability": "view",
      "type": "function"
    },
    {
      "inputs": [
        {
          "internalType": "address",
          "name": "",
          "type": "address"
        }
      ],
      "name": "s_investors",
      "outputs": [
        {
          "internalType": "uint256",
          "name": "",
          "type": "uint256"
        }
      ],
      "stateMutability": "view",
      "type": "function"
    },
    {
      "inputs": [
        {
          "internalType": "address",
          "name": "",
          "type": "address"
        }
      ],
      "name": "s_isEarlyBird",
      "outputs": [
        {
          "internalType": "bool",
          "name": "",
          "type": "bool"
        }
      ],
      "stateMutability": "view",
      "type": "function"
    },
    {
      "inputs": [],
      "name": "s_isSuccessful",
      "outputs": [
        {
          "internalType": "bool",
          "name": "",
          "type": "bool"
        }
      ],
      "stateMutability": "view",
      "type": "function"
    },
    {
      "inputs": [],
      "name": "s_isWithdrawn",
      "outputs": [
        {
          "internalType": "bool",
          "name": "",
          "type": "bool"
        }
      ],
      "stateMutability": "view",
      "type": "function"
    },
    {
      "inputs": [
        {
          "internalType": "address",
          "name": "",
          "type": "address"
        }
      ],
      "name": "s_pendingTokens",
      "outputs": [
        {
          "internalType": "uint256",
          "name": "",
          "type": "uint256"
        }
      ],
      "stateMutability": "view",
      "type": "function"
    },
    {
      "inputs": [],
      "name": "s_raisedAmount",
      "outputs": [
        {
          "internalType": "uint256",
          "name": "",
          "type": "uint256"
        }
      ],
      "stateMutability": "view",
      "type": "function"
    },
    {
      "inputs": [],
      "name": "s_token",
      "outputs": [
        {
          "internalType": "contract ProjectToken",
          "name": "",
          "type": "address"
        }
      ],
      "stateMutability": "view",
      "type": "function"
    },
    {
      "inputs": [
        {
          "internalType": "address",
          "name": "",
          "type": "address"
        }
      ],
      "name": "s_tokensClaimed",
      "outputs": [
        {
          "internalType": "bool",
          "name": "",
          "type": "bool"
        }
      ],
      "stateMutability": "view",
      "type": "function"
    },
    {
      "inputs": [],
      "name": "withdrawFunds",
      "outputs": [],
      "stateMutability": "nonpayable",
      "type": "function"
    },
    {
      "stateMutability": "payable",
      "type": "receive"
    }
  ],
  "bytecode": "0x60c06040523480156200001157600080fd5b50604051620037f1380380620037f183398181016040528101906200003791906200027c565b60016000819055506000851162000085576040517f08c379a00000000000000000000000000000000000000000000000000000000081526004016200007c9062000365565b60405180910390fd5b600073ffffffffffffffffffffffffffffffffffffffff168373ffffffffffffffffffffffffffffffffffffffff1603620000f7576040517f08c379a0000000000000000000000000000000000000000000000000000000008152600401620000ee90620003d7565b60405180910390fd5b3373ffffffffffffffffffffffffffffffffffffffff1660808173ffffffffffffffffffffffffffffffffffffffff16815250508460a08181525050834262000141919062000428565b60018190555082600760006101000a81548173ffffffffffffffffffffffffffffffffffffffff021916908373ffffffffffffffffffffffffffffffffffffffff16021790555081600881905550806009819055506000600360006101000a81548160ff0219169083151502179055506000600360016101000a81548160ff021916908315150217905550505050505062000463565b600080fd5b6000819050919050565b620001f181620001dc565b8114620001fd57600080fd5b50565b6000815190506200021181620001e6565b92915050565b600073ffffffffffffffffffffffffffffffffffffffff82169050919050565b6000620002448262000217565b9050919050565b620002568162000237565b81146200026257600080fd5b50565b60008151905062000276816200024b565b92915050565b600080600080600060a086880312156200029b576200029a620001d7565b5b6000620002ab8882890162000200565b9550506020620002be8882890162000200565b9450506040620002d18882890162000265565b9350506060620002e48882890162000200565b9250506080620002f78882890162000200565b9150509295509295909350565b600082825260208201905092915050565b7f476f616c206d75737420626520706f7369746976650000000000000000000000600082015250565b60006200034d60158362000304565b91506200035a8262000315565b602082019050919050565b6000602082019050818103600083015262000380816200033e565b9050919050565b7f496e76616c696420746f6b656e20616464726573730000000000000000000000600082015250565b6000620003bf60158362000304565b9150620003cc8262000387565b602082019050919050565b60006020820190508181036000830152620003f281620003b0565b9050919050565b7f4e487b7100000000000000000000000000000000000000000000000000000000600052601160045260246000fd5b60006200043582620001dc565b91506200044283620001dc565b92508282019050808211156200045d576200045c620003f9565b5b92915050565b60805160a05161331b620004d66000396000818161102d015281816113c601528181611b0001528181611d9601528181611ed901528181611fc601526123f9015260008181610c1f01528181610dfa01528181610ec401528181610f5401528181611cc40152612057015261331b6000f3fe60806040526004361061023f5760003560e01c80636c676d921161012e578063af157c19116100ab578063d6290cd71161006f578063d6290cd7146108b7578063dba6335f146108e7578063e8b5e51f14610912578063efb98bcf1461091c578063fb2f506414610947576102a2565b8063af157c19146107bb578063b97a7d24146107e6578063c0a1631f14610811578063c53f57211461083d578063c553bfef1461087a576102a2565b80638e75e482116100f25780638e75e482146106e6578063960524e314610711578063a1211bc01461073c578063a177582214610753578063a923988114610790576102a2565b80636c676d92146105eb5780636e99d52f14610628578063875c3a6614610653578063889a55af14610690578063893d20e8146106bb576102a2565b806339cdf4ed116101bc57806354e49a6a1161018057806354e49a6a1461051657806356e779a514610553578063590e1ae31461057e5780635f8d96de1461059557806365156b31146105c0576102a2565b806339cdf4ed146104405780633da8c3a71461047e57806348816b3f146104a9578063489e757f146104d457806348c54b9d146104ff576102a2565b80631e8c4d42116102035780631e8c4d421461039157806324600fc3146103bc57806327ad7a5d146103d35780632f73de31146103fe57806338ea45fc14610415576102a2565b806307266aa8146102a75780630cfc2fc5146102d257806312065fe0146102fd57806319c16544146103285780631c4c8a8614610353576102a2565b366102a2573073ffffffffffffffffffffffffffffffffffffffff1663e8b5e51f6040518163ffffffff1660e01b8152600401600060405180830381600087803b15801561028c57600080fd5b505af11580156102a0573d6000803e3d6000fd5b005b600080fd5b3480156102b357600080fd5b506102bc610984565b6040516102c99190612566565b60405180910390f35b3480156102de57600080fd5b506102e761099b565b6040516102f49190612566565b60405180910390f35b34801561030957600080fd5b506103126109ae565b60405161031f919061259a565b60405180910390f35b34801561033457600080fd5b5061033d6109b6565b60405161034a919061259a565b60405180910390f35b34801561035f57600080fd5b5061037a60048036038101906103759190612618565b6109c0565b6040516103889291906126d5565b60405180910390f35b34801561039d57600080fd5b506103a6610c17565b6040516103b3919061259a565b60405180910390f35b3480156103c857600080fd5b506103d1610c1d565b005b3480156103df57600080fd5b506103e8610f3b565b6040516103f59190612566565b60405180910390f35b34801561040a57600080fd5b50610413610f52565b005b34801561042157600080fd5b5061042a6110b8565b604051610437919061259a565b60405180910390f35b34801561044c57600080fd5b5061046760048036038101906104629190612618565b6110be565b6040516104759291906126d5565b60405180910390f35b34801561048a57600080fd5b506104936113a7565b6040516104a09190612566565b60405180910390f35b3480156104b557600080fd5b506104be6113ba565b6040516104cb919061259a565b60405180910390f35b3480156104e057600080fd5b506104e96113c4565b6040516104f6919061259a565b60405180910390f35b34801561050b57600080fd5b506105146113e8565b005b34801561052257600080fd5b5061053d60048036038101906105389190612618565b6117b5565b60405161054a919061259a565b60405180910390f35b34801561055f57600080fd5b506105686117cd565b604051610575919061259a565b60405180910390f35b34801561058a57600080fd5b506105936117d3565b005b3480156105a157600080fd5b506105aa611c4d565b6040516105b7919061259a565b60405180910390f35b3480156105cc57600080fd5b506105d5611c57565b6040516105e29190612764565b60405180910390f35b3480156105f757600080fd5b50610612600480360381019061060d9190612618565b611c7d565b60405161061f9190612566565b60405180910390f35b34801561063457600080fd5b5061063d611c9d565b60405161064a919061259a565b60405180910390f35b34801561065f57600080fd5b5061067a60048036038101906106759190612618565b611ca2565b604051610687919061259a565b60405180910390f35b34801561069c57600080fd5b506106a5611cba565b6040516106b2919061259a565b60405180910390f35b3480156106c757600080fd5b506106d0611cc0565b6040516106dd919061278e565b60405180910390f35b3480156106f257600080fd5b506106fb611ce8565b604051610708919061259a565b60405180910390f35b34801561071d57600080fd5b50610726611cf2565b604051610733919061259a565b60405180910390f35b34801561074857600080fd5b50610751611cff565b005b34801561075f57600080fd5b5061077a60048036038101906107759190612618565b611e21565b6040516107879190612566565b60405180910390f35b34801561079c57600080fd5b506107a5611e41565b6040516107b2919061259a565b60405180910390f35b3480156107c757600080fd5b506107d0611e47565b6040516107dd9190612867565b60405180910390f35b3480156107f257600080fd5b506107fb611ed5565b604051610808919061259a565b60405180910390f35b34801561081d57600080fd5b50610826611efd565b604051610834929190612889565b60405180910390f35b34801561084957600080fd5b50610864600480360381019061085f9190612618565b611f5c565b6040516108719190612566565b60405180910390f35b34801561088657600080fd5b506108a1600480360381019061089c91906128de565b611f7c565b6040516108ae919061278e565b60405180910390f35b3480156108c357600080fd5b506108cc611fbb565b6040516108de9695949392919061290b565b60405180910390f35b3480156108f357600080fd5b506108fc612055565b604051610909919061278e565b60405180910390f35b61091a612079565b005b34801561092857600080fd5b50610931612481565b60405161093e919061259a565b60405180910390f35b34801561095357600080fd5b5061096e60048036038101906109699190612618565b6124a9565b60405161097b919061259a565b60405180910390f35b6000600360009054906101000a900460ff16905090565b600360019054906101000a900460ff1681565b600047905090565b6000600954905090565b60006060600154421015610a0f5760006040518060400160405280601281526020017fe4bc97e7adb9e5b09ae69caae7bb93e69d9f000000000000000000000000000081525091509150610c12565b600560008473ffffffffffffffffffffffffffffffffffffffff1673ffffffffffffffffffffffffffffffffffffffff16815260200190815260200160002060009054906101000a900460ff1615610aa25760006040518060400160405280600981526020017fe5b7b2e98080e6acbe000000000000000000000000000000000000000000000081525091509150610c12565b6000600460008573ffffffffffffffffffffffffffffffffffffffff1673ffffffffffffffffffffffffffffffffffffffff1681526020019081526020016000205403610b2a5760006040518060400160405280600f81526020017fe697a0e68a95e8b584e8aeb0e5bd95000000000000000000000000000000000081525091509150610c12565b600360009054906101000a900460ff16610b7f5760016040518060400160405280601881526020017fe4bc97e7adb9e5a4b1e8b4a5efbc8ce58fafe98080e6acbe000000000000000081525091509150610c12565b60b4600154610b8e919061299b565b4211610bd55760016040518060400160405280601881526020017fe586b7e99d99e69c9fe4b8adefbc8ce58fafe98080e6acbe000000000000000081525091509150610c12565b60006040518060400160405280600f81526020017fe586b7e99d99e69c9fe5b7b2e8bf870000000000000000000000000000000000815250915091505b915091565b600a5481565b7f000000000000000000000000000000000000000000000000000000000000000073ffffffffffffffffffffffffffffffffffffffff163373ffffffffffffffffffffffffffffffffffffffff1614610cab576040517f08c379a0000000000000000000000000000000000000000000000000000000008152600401610ca290612a1b565b60405180910390fd5b600154421015610cf0576040517f08c379a0000000000000000000000000000000000000000000000000000000008152600401610ce790612a87565b60405180910390fd5b60b4600154610cff919061299b565b4211610d40576040517f08c379a0000000000000000000000000000000000000000000000000000000008152600401610d3790612af3565b60405180910390fd5b610d486124f2565b600360019054906101000a900460ff1615610d98576040517f08c379a0000000000000000000000000000000000000000000000000000000008152600401610d8f90612b5f565b60405180910390fd5b60004711610ddb576040517f08c379a0000000000000000000000000000000000000000000000000000000008152600401610dd290612bcb565b60405180910390fd5b6001600360016101000a81548160ff02191690831515021790555060007f000000000000000000000000000000000000000000000000000000000000000073ffffffffffffffffffffffffffffffffffffffff1647604051610e3c90612c1c565b60006040518083038185875af1925050503d8060008114610e79576040519150601f19603f3d011682016040523d82523d6000602084013e610e7e565b606091505b5050905080610ec2576040517f08c379a0000000000000000000000000000000000000000000000000000000008152600401610eb990612c7d565b60405180910390fd5b7f000000000000000000000000000000000000000000000000000000000000000073ffffffffffffffffffffffffffffffffffffffff167f7084f5476618d8e60b11ef0d7d3f06914655adb8793e28ff7f018d4c76d505d547604051610f28919061259a565b60405180910390a250610f39612541565b565b6000600360019054906101000a900460ff16905090565b7f000000000000000000000000000000000000000000000000000000000000000073ffffffffffffffffffffffffffffffffffffffff163373ffffffffffffffffffffffffffffffffffffffff1614610fe0576040517f08c379a0000000000000000000000000000000000000000000000000000000008152600401610fd790612a1b565b60405180910390fd5b6001544210611024576040517f08c379a000000000000000000000000000000000000000000000000000000000815260040161101b90612ce9565b60405180910390fd5b426001819055507f000000000000000000000000000000000000000000000000000000000000000060025410611070576001600360006101000a81548160ff0219169083151502179055505b7f170c266b6c51c5ee0e58a9ff23f733b295ff6c6b28f3c61a2ed3dc74a0902f2d600360009054906101000a900460ff166040516110ae9190612566565b60405180910390a1565b60025481565b60006060600154421161110c5760006040518060400160405280601281526020017fe4bc97e7adb9e5b09ae69caae7bb93e69d9f0000000000000000000000000000815250915091506113a2565b60b460015461111b919061299b565b42116111625760006040518060400160405280601581526020017fe586b7e99d99e69c9fe5b09ae69caae7bb93e69d9f0000000000000000000000815250915091506113a2565b600360009054906101000a900460ff166111b75760006040518060400160405280600f81526020017fe4bc97e7adb9e69caae68890e58a9f0000000000000000000000000000000000815250915091506113a2565b600560008473ffffffffffffffffffffffffffffffffffffffff1673ffffffffffffffffffffffffffffffffffffffff16815260200190815260200160002060009054906101000a900460ff161561124a5760006040518060400160405280600981526020017fe5b7b2e98080e6acbe0000000000000000000000000000000000000000000000815250915091506113a2565b600d60008473ffffffffffffffffffffffffffffffffffffffff1673ffffffffffffffffffffffffffffffffffffffff16815260200190815260200160002060009054906101000a900460ff16156112dd5760006040518060400160405280600981526020017fe5b7b2e9a286e58f960000000000000000000000000000000000000000000000815250915091506113a2565b6000600c60008573ffffffffffffffffffffffffffffffffffffffff1673ffffffffffffffffffffffffffffffffffffffff16815260200190815260200160002054036113655760006040518060400160405280601281526020017fe697a0e5be85e9a286e58f96e4bba3e5b8810000000000000000000000000000815250915091506113a2565b60016040518060400160405280600f81526020017fe58fafe9a286e58f96e4bba3e5b8810000000000000000000000000000000000815250915091505b915091565b600360009054906101000a900460ff1681565b6000600854905090565b7f000000000000000000000000000000000000000000000000000000000000000081565b60015442101561142d576040517f08c379a000000000000000000000000000000000000000000000000000000000815260040161142490612a87565b60405180910390fd5b60b460015461143c919061299b565b421161147d576040517f08c379a000000000000000000000000000000000000000000000000000000000815260040161147490612af3565b60405180910390fd5b6114856124f2565b600360009054906101000a900460ff166114d4576040517f08c379a00000000000000000000000000000000000000000000000000000000081526004016114cb90612d55565b60405180910390fd5b600560003373ffffffffffffffffffffffffffffffffffffffff1673ffffffffffffffffffffffffffffffffffffffff16815260200190815260200160002060009054906101000a900460ff1615611561576040517f08c379a000000000000000000000000000000000000000000000000000000000815260040161155890612dc1565b60405180910390fd5b600d60003373ffffffffffffffffffffffffffffffffffffffff1673ffffffffffffffffffffffffffffffffffffffff16815260200190815260200160002060009054906101000a900460ff16156115ee576040517f08c379a00000000000000000000000000000000000000000000000000000000081526004016115e590612e2d565b60405180910390fd5b6000600c60003373ffffffffffffffffffffffffffffffffffffffff1673ffffffffffffffffffffffffffffffffffffffff16815260200190815260200160002054905060008111611675576040517f08c379a000000000000000000000000000000000000000000000000000000000815260040161166c90612e99565b60405180910390fd5b6001600d60003373ffffffffffffffffffffffffffffffffffffffff1673ffffffffffffffffffffffffffffffffffffffff16815260200190815260200160002060006101000a81548160ff021916908315150217905550600760009054906101000a900473ffffffffffffffffffffffffffffffffffffffff1673ffffffffffffffffffffffffffffffffffffffff166340c10f1933836040518363ffffffff1660e01b815260040161172a929190612eb9565b600060405180830381600087803b15801561174457600080fd5b505af1158015611758573d6000803e3d6000fd5b505050503373ffffffffffffffffffffffffffffffffffffffff167f896e034966eaaf1adc54acc0f257056febbd300c9e47182cf761982cf1f5e430826040516117a2919061259a565b60405180910390a2506117b3612541565b565b600c6020528060005260406000206000915090505481565b60015481565b600154421015611818576040517f08c379a000000000000000000000000000000000000000000000000000000000815260040161180f90612a87565b60405180910390fd5b6118206124f2565b600560003373ffffffffffffffffffffffffffffffffffffffff1673ffffffffffffffffffffffffffffffffffffffff16815260200190815260200160002060009054906101000a900460ff16156118ad576040517f08c379a00000000000000000000000000000000000000000000000000000000081526004016118a490612dc1565b60405180910390fd5b6000600460003373ffffffffffffffffffffffffffffffffffffffff1673ffffffffffffffffffffffffffffffffffffffff16815260200190815260200160002054905060008111611934576040517f08c379a000000000000000000000000000000000000000000000000000000000815260040161192b90612f2e565b60405180910390fd5b6000600360009054906101000a900460ff166119535760019050611968565b60b4600154611962919061299b565b42111590505b806119a8576040517f08c379a000000000000000000000000000000000000000000000000000000000815260040161199f90612f9a565b60405180910390fd5b6001600560003373ffffffffffffffffffffffffffffffffffffffff1673ffffffffffffffffffffffffffffffffffffffff16815260200190815260200160002060006101000a81548160ff0219169083151502179055506000600460003373ffffffffffffffffffffffffffffffffffffffff1673ffffffffffffffffffffffffffffffffffffffff1681526020019081526020016000205490506000600460003373ffffffffffffffffffffffffffffffffffffffff1673ffffffffffffffffffffffffffffffffffffffff168152602001908152602001600020819055506000600c60003373ffffffffffffffffffffffffffffffffffffffff1673ffffffffffffffffffffffffffffffffffffffff168152602001908152602001600020819055508060026000828254611ae09190612fba565b92505081905550600360009054906101000a900460ff168015611b2457507f0000000000000000000000000000000000000000000000000000000000000000600254105b15611b45576000600360006101000a81548160ff0219169083151502179055505b60003373ffffffffffffffffffffffffffffffffffffffff1682604051611b6b90612c1c565b60006040518083038185875af1925050503d8060008114611ba8576040519150601f19603f3d011682016040523d82523d6000602084013e611bad565b606091505b5050905080611bf1576040517f08c379a0000000000000000000000000000000000000000000000000000000008152600401611be89061303a565b60405180910390fd5b3373ffffffffffffffffffffffffffffffffffffffff167fd7dee2702d63ad89917b6a4da9981c90c4d24f8c2bdfd64c604ecae57d8d065183604051611c37919061259a565b60405180910390a250505050611c4b612541565b565b6000600154905090565b600760009054906101000a900473ffffffffffffffffffffffffffffffffffffffff1681565b60056020528060005260406000206000915054906101000a900460ff1681565b60b481565b60046020528060005260406000206000915090505481565b60085481565b60007f0000000000000000000000000000000000000000000000000000000000000000905090565b6000600254905090565b6000600680549050905090565b600154421015611d44576040517f08c379a0000000000000000000000000000000000000000000000000000000008152600401611d3b90612a87565b60405180910390fd5b600360009054906101000a900460ff1615611d94576040517f08c379a0000000000000000000000000000000000000000000000000000000008152600401611d8b906130a6565b60405180910390fd5b7f000000000000000000000000000000000000000000000000000000000000000060025410611dd9576001600360006101000a81548160ff0219169083151502179055505b7f170c266b6c51c5ee0e58a9ff23f733b295ff6c6b28f3c61a2ed3dc74a0902f2d600360009054906101000a900460ff16604051611e179190612566565b60405180910390a1565b600b6020528060005260406000206000915054906101000a900460ff1681565b60095481565b60606006805480602002602001604051908101604052809291908181526020018280548015611ecb57602002820191906000526020600020905b8160009054906101000a900473ffffffffffffffffffffffffffffffffffffffff1673ffffffffffffffffffffffffffffffffffffffff1681526020019060010190808311611e81575b5050505050905090565b60007f0000000000000000000000000000000000000000000000000000000000000000905090565b600080600154421015611f165760008091509150611f58565b60b4600154611f25919061299b565b4210611f375760008091509150611f58565b4260b4600154611f47919061299b565b611f519190612fba565b6001915091505b9091565b600d6020528060005260406000206000915054906101000a900460ff1681565b60068181548110611f8c57600080fd5b906000526020600020016000915054906101000a900473ffffffffffffffffffffffffffffffffffffffff1681565b6000806000806000807f000000000000000000000000000000000000000000000000000000000000000060025460015442101561200557426001546120009190612fba565b612008565b60005b600680549050600360009054906101000a900460ff16600a5460085411612030576000612041565b600a546008546120409190612fba565b5b955095509550955095509550909192939495565b7f000000000000000000000000000000000000000000000000000000000000000081565b60015442106120bd576040517f08c379a00000000000000000000000000000000000000000000000000000000081526004016120b490612ce9565b60405180910390fd5b6120c56124f2565b60003411612108576040517f08c379a00000000000000000000000000000000000000000000000000000000081526004016120ff90613138565b60405180910390fd5b6000670de0b6b3a764000080612710346121229190613158565b61212c9190613158565b61213691906131c9565b905060008190506000600854600a5410801561219157506000600460003373ffffffffffffffffffffffffffffffffffffffff1673ffffffffffffffffffffffffffffffffffffffff16815260200190815260200160002054145b1561223557600190506001600b60003373ffffffffffffffffffffffffffffffffffffffff1673ffffffffffffffffffffffffffffffffffffffff16815260200190815260200160002060006101000a81548160ff021916908315150217905550600a6000815480929190612205906131fa565b919050555061271060095461271061221d919061299b565b846122289190613158565b61223291906131c9565b91505b6000600460003373ffffffffffffffffffffffffffffffffffffffff1673ffffffffffffffffffffffffffffffffffffffff16815260200190815260200160002054036122e0576006339080600181540180825580915050600190039060005260206000200160009091909190916101000a81548173ffffffffffffffffffffffffffffffffffffffff021916908373ffffffffffffffffffffffffffffffffffffffff1602179055505b34600460003373ffffffffffffffffffffffffffffffffffffffff1673ffffffffffffffffffffffffffffffffffffffff168152602001908152602001600020600082825461232f919061299b565b925050819055503460026000828254612348919061299b565b9250508190555081600c60003373ffffffffffffffffffffffffffffffffffffffff1673ffffffffffffffffffffffffffffffffffffffff168152602001908152602001600020600082825461239e919061299b565b925050819055503373ffffffffffffffffffffffffffffffffffffffff167f25dd7e298b084f3a9ca8071f7815ded7e3483e4581456edd77d33fe4616898b53484846040516123ef93929190613242565b60405180910390a27f000000000000000000000000000000000000000000000000000000000000000060025410612474576001600360006101000a81548160ff0219169083151502179055507f170c266b6c51c5ee0e58a9ff23f733b295ff6c6b28f3c61a2ed3dc74a0902f2d600160405161246b9190612566565b60405180910390a15b50505061247f612541565b565b6000600154421061249557600090506124a6565b426001546124a39190612fba565b90505b90565b6000600c60008373ffffffffffffffffffffffffffffffffffffffff1673ffffffffffffffffffffffffffffffffffffffff168152602001908152602001600020549050919050565b600260005403612537576040517f08c379a000000000000000000000000000000000000000000000000000000000815260040161252e906132c5565b60405180910390fd5b6002600081905550565b6001600081905550565b60008115159050919050565b6125608161254b565b82525050565b600060208201905061257b6000830184612557565b92915050565b6000819050919050565b61259481612581565b82525050565b60006020820190506125af600083018461258b565b92915050565b600080fd5b600073ffffffffffffffffffffffffffffffffffffffff82169050919050565b60006125e5826125ba565b9050919050565b6125f5816125da565b811461260057600080fd5b50565b600081359050612612816125ec565b92915050565b60006020828403121561262e5761262d6125b5565b5b600061263c84828501612603565b91505092915050565b600081519050919050565b600082825260208201905092915050565b60005b8381101561267f578082015181840152602081019050612664565b60008484015250505050565b6000601f19601f8301169050919050565b60006126a782612645565b6126b18185612650565b93506126c1818560208601612661565b6126ca8161268b565b840191505092915050565b60006040820190506126ea6000830185612557565b81810360208301526126fc818461269c565b90509392505050565b6000819050919050565b600061272a612725612720846125ba565b612705565b6125ba565b9050919050565b600061273c8261270f565b9050919050565b600061274e82612731565b9050919050565b61275e81612743565b82525050565b60006020820190506127796000830184612755565b92915050565b612788816125da565b82525050565b60006020820190506127a3600083018461277f565b92915050565b600081519050919050565b600082825260208201905092915050565b6000819050602082019050919050565b6127de816125da565b82525050565b60006127f083836127d5565b60208301905092915050565b6000602082019050919050565b6000612814826127a9565b61281e81856127b4565b9350612829836127c5565b8060005b8381101561285a57815161284188826127e4565b975061284c836127fc565b92505060018101905061282d565b5085935050505092915050565b600060208201905081810360008301526128818184612809565b905092915050565b600060408201905061289e600083018561258b565b6128ab6020830184612557565b9392505050565b6128bb81612581565b81146128c657600080fd5b50565b6000813590506128d8816128b2565b92915050565b6000602082840312156128f4576128f36125b5565b5b6000612902848285016128c9565b91505092915050565b600060c082019050612920600083018961258b565b61292d602083018861258b565b61293a604083018761258b565b612947606083018661258b565b6129546080830185612557565b61296160a083018461258b565b979650505050505050565b7f4e487b7100000000000000000000000000000000000000000000000000000000600052601160045260246000fd5b60006129a682612581565b91506129b183612581565b92508282019050808211156129c9576129c861296c565b5b92915050565b7f4f6e6c792070726f6a656374206f776e65722063616e2063616c6c0000000000600082015250565b6000612a05601b83612650565b9150612a10826129cf565b602082019050919050565b60006020820190508181036000830152612a34816129f8565b9050919050565b7f43616d706169676e20686173206e6f7420656e64656420796574000000000000600082015250565b6000612a71601a83612650565b9150612a7c82612a3b565b602082019050919050565b60006020820190508181036000830152612aa081612a64565b9050919050565b7f436f6f6c646f776e20706572696f6420686173206e6f7420656e646564000000600082015250565b6000612add601d83612650565b9150612ae882612aa7565b602082019050919050565b60006020820190508181036000830152612b0c81612ad0565b9050919050565b7f46756e647320616c72656164792077697468647261776e000000000000000000600082015250565b6000612b49601783612650565b9150612b5482612b13565b602082019050919050565b60006020820190508181036000830152612b7881612b3c565b9050919050565b7f4e6f2066756e647320746f207769746864726177000000000000000000000000600082015250565b6000612bb5601483612650565b9150612bc082612b7f565b602082019050919050565b60006020820190508181036000830152612be481612ba8565b9050919050565b600081905092915050565b50565b6000612c06600083612beb565b9150612c1182612bf6565b600082019050919050565b6000612c2782612bf9565b9150819050919050565b7f5472616e73666572206661696c65640000000000000000000000000000000000600082015250565b6000612c67600f83612650565b9150612c7282612c31565b602082019050919050565b60006020820190508181036000830152612c9681612c5a565b9050919050565b7f43616d706169676e2068617320656e6465640000000000000000000000000000600082015250565b6000612cd3601283612650565b9150612cde82612c9d565b602082019050919050565b60006020820190508181036000830152612d0281612cc6565b9050919050565b7f43616d706169676e206973206e6f74207375636365737366756c000000000000600082015250565b6000612d3f601a83612650565b9150612d4a82612d09565b602082019050919050565b60006020820190508181036000830152612d6e81612d32565b9050919050565b7f416c726561647920726566756e64656400000000000000000000000000000000600082015250565b6000612dab601083612650565b9150612db682612d75565b602082019050919050565b60006020820190508181036000830152612dda81612d9e565b9050919050565b7f546f6b656e7320616c726561647920636c61696d656400000000000000000000600082015250565b6000612e17601683612650565b9150612e2282612de1565b602082019050919050565b60006020820190508181036000830152612e4681612e0a565b9050919050565b7f4e6f20746f6b656e7320746f20636c61696d0000000000000000000000000000600082015250565b6000612e83601283612650565b9150612e8e82612e4d565b602082019050919050565b60006020820190508181036000830152612eb281612e76565b9050919050565b6000604082019050612ece600083018561277f565b612edb602083018461258b565b9392505050565b7f4e6f20696e766573746d656e7420746f20726566756e64000000000000000000600082015250565b6000612f18601783612650565b9150612f2382612ee2565b602082019050919050565b60006020820190508181036000830152612f4781612f0b565b9050919050565b7f436f6f6c646f776e20706572696f642065787069726564000000000000000000600082015250565b6000612f84601783612650565b9150612f8f82612f4e565b602082019050919050565b60006020820190508181036000830152612fb381612f77565b9050919050565b6000612fc582612581565b9150612fd083612581565b9250828203905081811115612fe857612fe761296c565b5b92915050565b7f526566756e64206661696c656400000000000000000000000000000000000000600082015250565b6000613024600d83612650565b915061302f82612fee565b602082019050919050565b6000602082019050818103600083015261305381613017565b9050919050565b7f43616d706169676e20616c72656164792066696e616c697a6564000000000000600082015250565b6000613090601a83612650565b915061309b8261305a565b602082019050919050565b600060208201905081810360008301526130bf81613083565b9050919050565b7f496e766573746d656e74206d7573742062652067726561746572207468616e2060008201527f3000000000000000000000000000000000000000000000000000000000000000602082015250565b6000613122602183612650565b915061312d826130c6565b604082019050919050565b6000602082019050818103600083015261315181613115565b9050919050565b600061316382612581565b915061316e83612581565b925082820261317c81612581565b915082820484148315176131935761319261296c565b5b5092915050565b7f4e487b7100000000000000000000000000000000000000000000000000000000600052601260045260246000fd5b60006131d482612581565b91506131df83612581565b9250826131ef576131ee61319a565b5b828204905092915050565b600061320582612581565b91507fffffffffffffffffffffffffffffffffffffffffffffffffffffffffffffffff82036132375761323661296c565b5b600182019050919050565b6000606082019050613257600083018661258b565b613264602083018561258b565b6132716040830184612557565b949350505050565b7f5265656e7472616e637947756172643a207265656e7472616e742063616c6c00600082015250565b60006132af601f83612650565b91506132ba82613279565b602082019050919050565b600060208201905081810360008301526132de816132a2565b905091905056fea26469706673582212204061550cbfae67b119d40297ace3b588d6c951a4a4735ffd33e072178461d02d64736f6c63430008120033",
  "linkReferences": {},
  "deployedLinkReferences": {}
}