{
  "_format": "hh-sol-artifact-1",
  "contractName": "Crowdfunding",
  "sourceName": "contracts/Crowdfunding.sol",
  "abi": [
    {
      "inputs": [
        {
          "internalType": "uint256",
          "name": "goal",
          "type": "uint256"
        },
        {
          "internalType": "uint256",
          "name": "durationInSeconds",
          "type": "uint256"
        },
        {
          "internalType": "address",
          "name": "tokenAddress",
          "type": "address"
        },
        {
          "internalType": "uint256",
          "name": "earlyBirdLimit",
          "type": "uint256"
        },
        {
          "internalType": "uint256",
          "name": "earlyBirdBonusRate",
          "type": "uint256"
        }
      ],
      "stateMutability": "nonpayable",
      "type": "constructor"
    },
    {
      "anonymous": false,
      "inputs": [
        {
          "indexed": false,
          "internalType": "bool",
          "name": "success",
          "type": "bool"
        }
      ],
      "name": "CampaignFinalized",
      "type": "event"
    },
    {
      "anonymous": false,
      "inputs": [
        {
          "indexed": true,
          "internalType": "address",
          "name": "investor",
          "type": "address"
        },
        {
          "indexed": false,
          "internalType": "uint256",
          "name": "amount",
          "type": "uint256"
        },
        {
          "indexed": false,
          "internalType": "uint256",
          "name": "tokenAmount",
          "type": "uint256"
        },
        {
          "indexed": false,
          "internalType": "bool",
          "name": "isEarlyBird",
          "type": "bool"
        }
      ],
      "name": "Invested",
      "type": "event"
    },
    {
      "anonymous": false,
      "inputs": [
        {
          "indexed": true,
          "internalType": "address",
          "name": "investor",
          "type": "address"
        },
        {
          "indexed": false,
          "internalType": "uint256",
          "name": "amount",
          "type": "uint256"
        }
      ],
      "name": "Refunded",
      "type": "event"
    },
    {
      "anonymous": false,
      "inputs": [
        {
          "indexed": true,
          "internalType": "address",
          "name": "investor",
          "type": "address"
        },
        {
          "indexed": false,
          "internalType": "uint256",
          "name": "amount",
          "type": "uint256"
        }
      ],
      "name": "TokensClaimed",
      "type": "event"
    },
    {
      "anonymous": false,
      "inputs": [
        {
          "indexed": false,
          "internalType": "uint256",
          "name": "totalAmount",
          "type": "uint256"
        }
      ],
      "name": "TokensDistributed",
      "type": "event"
    },
    {
      "anonymous": false,
      "inputs": [
        {
          "indexed": true,
          "internalType": "address",
          "name": "owner",
          "type": "address"
        },
        {
          "indexed": false,
          "internalType": "uint256",
          "name": "amount",
          "type": "uint256"
        }
      ],
      "name": "Withdrawn",
      "type": "event"
    },
    {
      "inputs": [],
      "name": "COOLDOWN_PERIOD",
      "outputs": [
        {
          "internalType": "uint256",
          "name": "",
          "type": "uint256"
        }
      ],
      "stateMutability": "view",
      "type": "function"
    },
    {
      "inputs": [
        {
          "internalType": "address",
          "name": "user",
          "type": "address"
        }
      ],
      "name": "canUserClaim",
      "outputs": [
        {
          "internalType": "bool",
          "name": "",
          "type": "bool"
        },
        {
          "internalType": "string",
          "name": "",
          "type": "string"
        }
      ],
      "stateMutability": "view",
      "type": "function"
    },
    {
      "inputs": [
        {
          "internalType": "address",
          "name": "user",
          "type": "address"
        }
      ],
      "name": "canUserRefund",
      "outputs": [
        {
          "internalType": "bool",
          "name": "",
          "type": "bool"
        },
        {
          "internalType": "string",
          "name": "",
          "type": "string"
        }
      ],
      "stateMutability": "view",
      "type": "function"
    },
    {
      "inputs": [],
      "name": "distributeTokens",
      "outputs": [],
      "stateMutability": "nonpayable",
      "type": "function"
    },
    {
      "inputs": [],
      "name": "endCampaignEarly",
      "outputs": [],
      "stateMutability": "nonpayable",
      "type": "function"
    },
    {
      "inputs": [],
      "name": "finalizeCampaign",
      "outputs": [],
      "stateMutability": "nonpayable",
      "type": "function"
    },
    {
      "inputs": [],
      "name": "getBalance",
      "outputs": [
        {
          "internalType": "uint256",
          "name": "",
          "type": "uint256"
        }
      ],
      "stateMutability": "view",
      "type": "function"
    },
    {
      "inputs": [],
      "name": "getCampaignInfo",
      "outputs": [
        {
          "internalType": "uint256",
          "name": "target",
          "type": "uint256"
        },
        {
          "internalType": "uint256",
          "name": "raised",
          "type": "uint256"
        },
        {
          "internalType": "uint256",
          "name": "remaining",
          "type": "uint256"
        },
        {
          "internalType": "uint256",
          "name": "participantCount",
          "type": "uint256"
        },
        {
          "internalType": "bool",
          "name": "isSuccessful",
          "type": "bool"
        },
        {
          "internalType": "uint256",
          "name": "earlyBirdRemaining",
          "type": "uint256"
        }
      ],
      "stateMutability": "view",
      "type": "function"
    },
    {
      "inputs": [],
      "name": "getContributors",
      "outputs": [
        {
          "internalType": "address[]",
          "name": "",
          "type": "address[]"
        }
      ],
      "stateMutability": "view",
      "type": "function"
    },
    {
      "inputs": [],
      "name": "getCooldownInfo",
      "outputs": [
        {
          "internalType": "uint256",
          "name": "remainingTime",
          "type": "uint256"
        },
        {
          "internalType": "bool",
          "name": "isActive",
          "type": "bool"
        }
      ],
      "stateMutability": "view",
      "type": "function"
    },
    {
      "inputs": [],
      "name": "getCooldownPeriod",
      "outputs": [
        {
          "internalType": "uint256",
          "name": "",
          "type": "uint256"
        }
      ],
      "stateMutability": "pure",
      "type": "function"
    },
    {
      "inputs": [],
      "name": "getDeadline",
      "outputs": [
        {
          "internalType": "uint256",
          "name": "",
          "type": "uint256"
        }
      ],
      "stateMutability": "view",
      "type": "function"
    },
    {
      "inputs": [],
      "name": "getEarlyBirdBonusRate",
      "outputs": [
        {
          "internalType": "uint256",
          "name": "",
          "type": "uint256"
        }
      ],
      "stateMutability": "view",
      "type": "function"
    },
    {
      "inputs": [],
      "name": "getEarlyBirdLimit",
      "outputs": [
        {
          "internalType": "uint256",
          "name": "",
          "type": "uint256"
        }
      ],
      "stateMutability": "view",
      "type": "function"
    },
    {
      "inputs": [],
      "name": "getGoal",
      "outputs": [
        {
          "internalType": "uint256",
          "name": "",
          "type": "uint256"
        }
      ],
      "stateMutability": "view",
      "type": "function"
    },
    {
      "inputs": [],
      "name": "getInvestorCount",
      "outputs": [
        {
          "internalType": "uint256",
          "name": "",
          "type": "uint256"
        }
      ],
      "stateMutability": "view",
      "type": "function"
    },
    {
      "inputs": [],
      "name": "getIsSuccessful",
      "outputs": [
        {
          "internalType": "bool",
          "name": "",
          "type": "bool"
        }
      ],
      "stateMutability": "view",
      "type": "function"
    },
    {
      "inputs": [],
      "name": "getIsWithdrawn",
      "outputs": [
        {
          "internalType": "bool",
          "name": "",
          "type": "bool"
        }
      ],
      "stateMutability": "view",
      "type": "function"
    },
    {
      "inputs": [],
      "name": "getOwner",
      "outputs": [
        {
          "internalType": "address",
          "name": "",
          "type": "address"
        }
      ],
      "stateMutability": "view",
      "type": "function"
    },
    {
      "inputs": [
        {
          "internalType": "address",
          "name": "user",
          "type": "address"
        }
      ],
      "name": "getPendingTokens",
      "outputs": [
        {
          "internalType": "uint256",
          "name": "",
          "type": "uint256"
        }
      ],
      "stateMutability": "view",
      "type": "function"
    },
    {
      "inputs": [],
      "name": "getRaisedAmount",
      "outputs": [
        {
          "internalType": "uint256",
          "name": "",
          "type": "uint256"
        }
      ],
      "stateMutability": "view",
      "type": "function"
    },
    {
      "inputs": [],
      "name": "getRemainingTime",
      "outputs": [
        {
          "internalType": "uint256",
          "name": "",
          "type": "uint256"
        }
      ],
      "stateMutability": "view",
      "type": "function"
    },
    {
      "inputs": [],
      "name": "i_owner",
      "outputs": [
        {
          "internalType": "address",
          "name": "",
          "type": "address"
        }
      ],
      "stateMutability": "view",
      "type": "function"
    },
    {
      "inputs": [],
      "name": "invest",
      "outputs": [],
      "stateMutability": "payable",
      "type": "function"
    },
    {
      "inputs": [],
      "name": "refund",
      "outputs": [],
      "stateMutability": "nonpayable",
      "type": "function"
    },
    {
      "inputs": [],
      "name": "s_currentEarlyBirdCount",
      "outputs": [
        {
          "internalType": "uint256",
          "name": "",
          "type": "uint256"
        }
      ],
      "stateMutability": "view",
      "type": "function"
    },
    {
      "inputs": [],
      "name": "s_deadline",
      "outputs": [
        {
          "internalType": "uint256",
          "name": "",
          "type": "uint256"
        }
      ],
      "stateMutability": "view",
      "type": "function"
    },
    {
      "inputs": [],
      "name": "s_earlyBirdBonusRate",
      "outputs": [
        {
          "internalType": "uint256",
          "name": "",
          "type": "uint256"
        }
      ],
      "stateMutability": "view",
      "type": "function"
    },
    {
      "inputs": [],
      "name": "s_earlyBirdLimit",
      "outputs": [
        {
          "internalType": "uint256",
          "name": "",
          "type": "uint256"
        }
      ],
      "stateMutability": "view",
      "type": "function"
    },
    {
      "inputs": [],
      "name": "s_goal",
      "outputs": [
        {
          "internalType": "uint256",
          "name": "",
          "type": "uint256"
        }
      ],
      "stateMutability": "view",
      "type": "function"
    },
    {
      "inputs": [
        {
          "internalType": "address",
          "name": "",
          "type": "address"
        }
      ],
      "name": "s_hasRefunded",
      "outputs": [
        {
          "internalType": "bool",
          "name": "",
          "type": "bool"
        }
      ],
      "stateMutability": "view",
      "type": "function"
    },
    {
      "inputs": [
        {
          "internalType": "uint256",
          "name": "",
          "type": "uint256"
        }
      ],
      "name": "s_investorAddresses",
      "outputs": [
        {
          "internalType": "address",
          "name": "",
          "type": "address"
        }
      ],
      "stateMutability": "view",
      "type": "function"
    },
    {
      "inputs": [
        {
          "internalType": "address",
          "name": "",
          "type": "address"
        }
      ],
      "name": "s_investors",
      "outputs": [
        {
          "internalType": "uint256",
          "name": "",
          "type": "uint256"
        }
      ],
      "stateMutability": "view",
      "type": "function"
    },
    {
      "inputs": [
        {
          "internalType": "address",
          "name": "",
          "type": "address"
        }
      ],
      "name": "s_isEarlyBird",
      "outputs": [
        {
          "internalType": "bool",
          "name": "",
          "type": "bool"
        }
      ],
      "stateMutability": "view",
      "type": "function"
    },
    {
      "inputs": [],
      "name": "s_isSuccessful",
      "outputs": [
        {
          "internalType": "bool",
          "name": "",
          "type": "bool"
        }
      ],
      "stateMutability": "view",
      "type": "function"
    },
    {
      "inputs": [],
      "name": "s_isWithdrawn",
      "outputs": [
        {
          "internalType": "bool",
          "name": "",
          "type": "bool"
        }
      ],
      "stateMutability": "view",
      "type": "function"
    },
    {
      "inputs": [
        {
          "internalType": "address",
          "name": "",
          "type": "address"
        }
      ],
      "name": "s_pendingTokens",
      "outputs": [
        {
          "internalType": "uint256",
          "name": "",
          "type": "uint256"
        }
      ],
      "stateMutability": "view",
      "type": "function"
    },
    {
      "inputs": [],
      "name": "s_raisedAmount",
      "outputs": [
        {
          "internalType": "uint256",
          "name": "",
          "type": "uint256"
        }
      ],
      "stateMutability": "view",
      "type": "function"
    },
    {
      "inputs": [],
      "name": "s_token",
      "outputs": [
        {
          "internalType": "contract ProjectToken",
          "name": "",
          "type": "address"
        }
      ],
      "stateMutability": "view",
      "type": "function"
    },
    {
      "inputs": [
        {
          "internalType": "address",
          "name": "",
          "type": "address"
        }
      ],
      "name": "s_tokensClaimed",
      "outputs": [
        {
          "internalType": "bool",
          "name": "",
          "type": "bool"
        }
      ],
      "stateMutability": "view",
      "type": "function"
    },
    {
      "inputs": [],
      "name": "s_tokensDistributed",
      "outputs": [
        {
          "internalType": "bool",
          "name": "",
          "type": "bool"
        }
      ],
      "stateMutability": "view",
      "type": "function"
    },
    {
      "inputs": [],
      "name": "withdrawFunds",
      "outputs": [],
      "stateMutability": "nonpayable",
      "type": "function"
    },
    {
      "stateMutability": "payable",
      "type": "receive"
    }
  ],
  "bytecode": "0x60c06040523480156200001157600080fd5b5060405162003ab238038062003ab2833981810160405281019062000037919062000326565b60016000819055506000851162000085576040517f08c379a00000000000000000000000000000000000000000000000000000000081526004016200007c906200040f565b60405180910390fd5b600073ffffffffffffffffffffffffffffffffffffffff168373ffffffffffffffffffffffffffffffffffffffff1603620000f7576040517f08c379a0000000000000000000000000000000000000000000000000000000008152600401620000ee9062000481565b60405180910390fd5b6113888111156200013f576040517f08c379a00000000000000000000000000000000000000000000000000000000081526004016200013690620004f3565b60405180910390fd5b600081101562000186576040517f08c379a00000000000000000000000000000000000000000000000000000000081526004016200017d9062000565565b60405180910390fd5b3373ffffffffffffffffffffffffffffffffffffffff1660808173ffffffffffffffffffffffffffffffffffffffff16815250508460a081815250508342620001d09190620005b6565b60018190555082600760006101000a81548173ffffffffffffffffffffffffffffffffffffffff021916908373ffffffffffffffffffffffffffffffffffffffff16021790555081600881905550806009819055506000600360006101000a81548160ff0219169083151502179055506000600360016101000a81548160ff0219169083151502179055506000600c60006101000a81548160ff0219169083151502179055505050505050620005f1565b600080fd5b6000819050919050565b6200029b8162000286565b8114620002a757600080fd5b50565b600081519050620002bb8162000290565b92915050565b600073ffffffffffffffffffffffffffffffffffffffff82169050919050565b6000620002ee82620002c1565b9050919050565b6200030081620002e1565b81146200030c57600080fd5b50565b6000815190506200032081620002f5565b92915050565b600080600080600060a0868803121562000345576200034462000281565b5b60006200035588828901620002aa565b95505060206200036888828901620002aa565b94505060406200037b888289016200030f565b93505060606200038e88828901620002aa565b9250506080620003a188828901620002aa565b9150509295509295909350565b600082825260208201905092915050565b7f476f616c206d75737420626520706f7369746976650000000000000000000000600082015250565b6000620003f7601583620003ae565b91506200040482620003bf565b602082019050919050565b600060208201905081810360008301526200042a81620003e8565b9050919050565b7f496e76616c696420746f6b656e20616464726573730000000000000000000000600082015250565b600062000469601583620003ae565b9150620004768262000431565b602082019050919050565b600060208201905081810360008301526200049c816200045a565b9050919050565b7f426f6e7573207261746520746f6f206869676800000000000000000000000000600082015250565b6000620004db601383620003ae565b9150620004e882620004a3565b602082019050919050565b600060208201905081810360008301526200050e81620004cc565b9050919050565b7f426f6e757320726174652063616e6e6f74206265206e65676174697665000000600082015250565b60006200054d601d83620003ae565b91506200055a8262000515565b602082019050919050565b6000602082019050818103600083015262000580816200053e565b9050919050565b7f4e487b7100000000000000000000000000000000000000000000000000000000600052601160045260246000fd5b6000620005c38262000286565b9150620005d08362000286565b9250828201905080821115620005eb57620005ea62000587565b5b92915050565b60805160a0516134556200065d600039600081816110cc0152818161146501528181611e0d01528181611f500152818161205d0152612472015260008181610c6801528181610e9801528181610f6201528181610ff30152818161195401526120ee01526134556000f3fe6080604052600436106102555760003560e01c80637defd5b011610139578063a9239881116100b6578063c553bfef1161007a578063c553bfef146108c3578063d6290cd714610900578063dba6335f14610930578063e8b5e51f1461095b578063efb98bcf14610965578063fb2f50641461099057610295565b8063a9239881146107d9578063af157c1914610804578063b97a7d241461082f578063c0a1631f1461085a578063c53f57211461088657610295565b80638e75e482116100fd5780638e75e48214610718578063960524e3146107435780639ab1b4841461076e578063a1211bc014610785578063a17758221461079c57610295565b80637defd5b01461062f578063848fc3bf1461065a578063875c3a6614610685578063889a55af146106c2578063893d20e8146106ed57610295565b806339cdf4ed116101d257806356e779a51161019657806356e779a51461052f578063590e1ae31461055a5780635f8d96de1461057157806365156b311461059c5780636c676d92146105c75780636e99d52f1461060457610295565b806339cdf4ed146104335780633da8c3a71461047157806348816b3f1461049c578063489e757f146104c757806354e49a6a146104f257610295565b80631e8c4d42116102195780631e8c4d421461038457806324600fc3146103af57806327ad7a5d146103c65780632f73de31146103f157806338ea45fc1461040857610295565b806307266aa81461029a5780630cfc2fc5146102c557806312065fe0146102f057806319c165441461031b5780631c4c8a861461034657610295565b36610295576040517f08c379a000000000000000000000000000000000000000000000000000000000815260040161028c90612647565b60405180910390fd5b600080fd5b3480156102a657600080fd5b506102af6109cd565b6040516102bc9190612682565b60405180910390f35b3480156102d157600080fd5b506102da6109e4565b6040516102e79190612682565b60405180910390f35b3480156102fc57600080fd5b506103056109f7565b60405161031291906126b6565b60405180910390f35b34801561032757600080fd5b506103306109ff565b60405161033d91906126b6565b60405180910390f35b34801561035257600080fd5b5061036d60048036038101906103689190612734565b610a09565b60405161037b9291906127e0565b60405180910390f35b34801561039057600080fd5b50610399610c60565b6040516103a691906126b6565b60405180910390f35b3480156103bb57600080fd5b506103c4610c66565b005b3480156103d257600080fd5b506103db610fda565b6040516103e89190612682565b60405180910390f35b3480156103fd57600080fd5b50610406610ff1565b005b34801561041457600080fd5b5061041d611157565b60405161042a91906126b6565b60405180910390f35b34801561043f57600080fd5b5061045a60048036038101906104559190612734565b61115d565b6040516104689291906127e0565b60405180910390f35b34801561047d57600080fd5b50610486611446565b6040516104939190612682565b60405180910390f35b3480156104a857600080fd5b506104b1611459565b6040516104be91906126b6565b60405180910390f35b3480156104d357600080fd5b506104dc611463565b6040516104e991906126b6565b60405180910390f35b3480156104fe57600080fd5b5061051960048036038101906105149190612734565b611487565b60405161052691906126b6565b60405180910390f35b34801561053b57600080fd5b5061054461149f565b60405161055191906126b6565b60405180910390f35b34801561056657600080fd5b5061056f6114a5565b005b34801561057d57600080fd5b506105866118c1565b60405161059391906126b6565b60405180910390f35b3480156105a857600080fd5b506105b16118cb565b6040516105be919061286f565b60405180910390f35b3480156105d357600080fd5b506105ee60048036038101906105e99190612734565b6118f1565b6040516105fb9190612682565b60405180910390f35b34801561061057600080fd5b50610619611911565b60405161062691906126b6565b60405180910390f35b34801561063b57600080fd5b50610644611916565b60405161065191906126b6565b60405180910390f35b34801561066657600080fd5b5061066f61191f565b60405161067c9190612682565b60405180910390f35b34801561069157600080fd5b506106ac60048036038101906106a79190612734565b611932565b6040516106b991906126b6565b60405180910390f35b3480156106ce57600080fd5b506106d761194a565b6040516106e491906126b6565b60405180910390f35b3480156106f957600080fd5b50610702611950565b60405161070f9190612899565b60405180910390f35b34801561072457600080fd5b5061072d611978565b60405161073a91906126b6565b60405180910390f35b34801561074f57600080fd5b50610758611982565b60405161076591906126b6565b60405180910390f35b34801561077a57600080fd5b5061078361198f565b005b34801561079157600080fd5b5061079a611d76565b005b3480156107a857600080fd5b506107c360048036038101906107be9190612734565b611e98565b6040516107d09190612682565b60405180910390f35b3480156107e557600080fd5b506107ee611eb8565b6040516107fb91906126b6565b60405180910390f35b34801561081057600080fd5b50610819611ebe565b6040516108269190612972565b60405180910390f35b34801561083b57600080fd5b50610844611f4c565b60405161085191906126b6565b60405180910390f35b34801561086657600080fd5b5061086f611f74565b60405161087d929190612994565b60405180910390f35b34801561089257600080fd5b506108ad60048036038101906108a89190612734565b611ff3565b6040516108ba9190612682565b60405180910390f35b3480156108cf57600080fd5b506108ea60048036038101906108e591906129e9565b612013565b6040516108f79190612899565b60405180910390f35b34801561090c57600080fd5b50610915612052565b60405161092796959493929190612a16565b60405180910390f35b34801561093c57600080fd5b506109456120ec565b6040516109529190612899565b60405180910390f35b610963612110565b005b34801561097157600080fd5b5061097a6124fa565b60405161098791906126b6565b60405180910390f35b34801561099c57600080fd5b506109b760048036038101906109b29190612734565b612522565b6040516109c491906126b6565b60405180910390f35b6000600360009054906101000a900460ff16905090565b600360019054906101000a900460ff1681565b600047905090565b6000600954905090565b60006060600154421015610a585760006040518060400160405280601281526020017fe4bc97e7adb9e5b09ae69caae7bb93e69d9f000000000000000000000000000081525091509150610c5b565b600560008473ffffffffffffffffffffffffffffffffffffffff1673ffffffffffffffffffffffffffffffffffffffff16815260200190815260200160002060009054906101000a900460ff1615610aeb5760006040518060400160405280600981526020017fe5b7b2e98080e6acbe000000000000000000000000000000000000000000000081525091509150610c5b565b6000600460008573ffffffffffffffffffffffffffffffffffffffff1673ffffffffffffffffffffffffffffffffffffffff1681526020019081526020016000205403610b735760006040518060400160405280600f81526020017fe697a0e68a95e8b584e8aeb0e5bd95000000000000000000000000000000000081525091509150610c5b565b600360009054906101000a900460ff16610bc85760016040518060400160405280601881526020017fe4bc97e7adb9e5a4b1e8b4a5efbc8ce58fafe98080e6acbe000000000000000081525091509150610c5b565b603c600154610bd79190612aa6565b4211610c1e5760016040518060400160405280601881526020017fe586b7e99d99e69c9fe4b8adefbc8ce58fafe98080e6acbe000000000000000081525091509150610c5b565b60006040518060400160405280600f81526020017fe586b7e99d99e69c9fe5b7b2e8bf870000000000000000000000000000000000815250915091505b915091565b600a5481565b7f000000000000000000000000000000000000000000000000000000000000000073ffffffffffffffffffffffffffffffffffffffff163373ffffffffffffffffffffffffffffffffffffffff1614610cf4576040517f08c379a0000000000000000000000000000000000000000000000000000000008152600401610ceb90612b26565b60405180910390fd5b600154421015610d39576040517f08c379a0000000000000000000000000000000000000000000000000000000008152600401610d3090612b92565b60405180910390fd5b603c600154610d489190612aa6565b421015610d8a576040517f08c379a0000000000000000000000000000000000000000000000000000000008152600401610d8190612bfe565b60405180910390fd5b610d9261256b565b600360019054906101000a900460ff1615610de2576040517f08c379a0000000000000000000000000000000000000000000000000000000008152600401610dd990612c6a565b60405180910390fd5b600360009054906101000a900460ff16610e31576040517f08c379a0000000000000000000000000000000000000000000000000000000008152600401610e2890612cd6565b60405180910390fd5b600047905060008111610e79576040517f08c379a0000000000000000000000000000000000000000000000000000000008152600401610e7090612d42565b60405180910390fd5b6001600360016101000a81548160ff02191690831515021790555060007f000000000000000000000000000000000000000000000000000000000000000073ffffffffffffffffffffffffffffffffffffffff1682604051610eda90612d93565b60006040518083038185875af1925050503d8060008114610f17576040519150601f19603f3d011682016040523d82523d6000602084013e610f1c565b606091505b5050905080610f60576040517f08c379a0000000000000000000000000000000000000000000000000000000008152600401610f5790612df4565b60405180910390fd5b7f000000000000000000000000000000000000000000000000000000000000000073ffffffffffffffffffffffffffffffffffffffff167f7084f5476618d8e60b11ef0d7d3f06914655adb8793e28ff7f018d4c76d505d583604051610fc691906126b6565b60405180910390a25050610fd86125ba565b565b6000600360019054906101000a900460ff16905090565b7f000000000000000000000000000000000000000000000000000000000000000073ffffffffffffffffffffffffffffffffffffffff163373ffffffffffffffffffffffffffffffffffffffff161461107f576040517f08c379a000000000000000000000000000000000000000000000000000000000815260040161107690612b26565b60405180910390fd5b60015442106110c3576040517f08c379a00000000000000000000000000000000000000000000000000000000081526004016110ba90612e60565b60405180910390fd5b426001819055507f00000000000000000000000000000000000000000000000000000000000000006002541061110f576001600360006101000a81548160ff0219169083151502179055505b7f170c266b6c51c5ee0e58a9ff23f733b295ff6c6b28f3c61a2ed3dc74a0902f2d600360009054906101000a900460ff1660405161114d9190612682565b60405180910390a1565b60025481565b6000606060015442116111ab5760006040518060400160405280601281526020017fe4bc97e7adb9e5b09ae69caae7bb93e69d9f000000000000000000000000000081525091509150611441565b603c6001546111ba9190612aa6565b42116112015760006040518060400160405280601581526020017fe586b7e99d99e69c9fe5b09ae69caae7bb93e69d9f000000000000000000000081525091509150611441565b600360009054906101000a900460ff166112565760006040518060400160405280600f81526020017fe4bc97e7adb9e69caae68890e58a9f000000000000000000000000000000000081525091509150611441565b600560008473ffffffffffffffffffffffffffffffffffffffff1673ffffffffffffffffffffffffffffffffffffffff16815260200190815260200160002060009054906101000a900460ff16156112e95760006040518060400160405280600981526020017fe5b7b2e98080e6acbe000000000000000000000000000000000000000000000081525091509150611441565b600e60008473ffffffffffffffffffffffffffffffffffffffff1673ffffffffffffffffffffffffffffffffffffffff16815260200190815260200160002060009054906101000a900460ff161561137c5760006040518060400160405280600981526020017fe5b7b2e9a286e58f96000000000000000000000000000000000000000000000081525091509150611441565b6000600d60008573ffffffffffffffffffffffffffffffffffffffff1673ffffffffffffffffffffffffffffffffffffffff16815260200190815260200160002054036114045760006040518060400160405280601281526020017fe697a0e5be85e9a286e58f96e4bba3e5b881000000000000000000000000000081525091509150611441565b60016040518060400160405280600f81526020017fe58fafe9a286e58f96e4bba3e5b8810000000000000000000000000000000000815250915091505b915091565b600360009054906101000a900460ff1681565b6000600854905090565b7f000000000000000000000000000000000000000000000000000000000000000081565b600d6020528060005260406000206000915090505481565b60015481565b6001544210156114ea576040517f08c379a00000000000000000000000000000000000000000000000000000000081526004016114e190612b92565b60405180910390fd5b6114f261256b565b600560003373ffffffffffffffffffffffffffffffffffffffff1673ffffffffffffffffffffffffffffffffffffffff16815260200190815260200160002060009054906101000a900460ff161561157f576040517f08c379a000000000000000000000000000000000000000000000000000000000815260040161157690612ecc565b60405180910390fd5b6000600460003373ffffffffffffffffffffffffffffffffffffffff1673ffffffffffffffffffffffffffffffffffffffff16815260200190815260200160002054905060008111611606576040517f08c379a00000000000000000000000000000000000000000000000000000000081526004016115fd90612f38565b60405180910390fd5b6000600360009054906101000a900460ff16611625576001905061163a565b603c6001546116349190612aa6565b42111590505b8061167a576040517f08c379a000000000000000000000000000000000000000000000000000000000815260040161167190612fa4565b60405180910390fd5b6001600560003373ffffffffffffffffffffffffffffffffffffffff1673ffffffffffffffffffffffffffffffffffffffff16815260200190815260200160002060006101000a81548160ff0219169083151502179055506000600460003373ffffffffffffffffffffffffffffffffffffffff1673ffffffffffffffffffffffffffffffffffffffff1681526020019081526020016000205490506000600460003373ffffffffffffffffffffffffffffffffffffffff1673ffffffffffffffffffffffffffffffffffffffff168152602001908152602001600020819055506000600d60003373ffffffffffffffffffffffffffffffffffffffff1673ffffffffffffffffffffffffffffffffffffffff1681526020019081526020016000208190555080600260008282546117b29190612fc4565b9250508190555060003373ffffffffffffffffffffffffffffffffffffffff16826040516117df90612d93565b60006040518083038185875af1925050503d806000811461181c576040519150601f19603f3d011682016040523d82523d6000602084013e611821565b606091505b5050905080611865576040517f08c379a000000000000000000000000000000000000000000000000000000000815260040161185c90613044565b60405180910390fd5b3373ffffffffffffffffffffffffffffffffffffffff167fd7dee2702d63ad89917b6a4da9981c90c4d24f8c2bdfd64c604ecae57d8d0651836040516118ab91906126b6565b60405180910390a2505050506118bf6125ba565b565b6000600154905090565b600760009054906101000a900473ffffffffffffffffffffffffffffffffffffffff1681565b60056020528060005260406000206000915054906101000a900460ff1681565b603c81565b6000603c905090565b600c60009054906101000a900460ff1681565b60046020528060005260406000206000915090505481565b60085481565b60007f0000000000000000000000000000000000000000000000000000000000000000905090565b6000600254905090565b6000600680549050905090565b6001544210156119d4576040517f08c379a00000000000000000000000000000000000000000000000000000000081526004016119cb90612b92565b60405180910390fd5b603c6001546119e39190612aa6565b421015611a25576040517f08c379a0000000000000000000000000000000000000000000000000000000008152600401611a1c90612bfe565b60405180910390fd5b611a2d61256b565b600360009054906101000a900460ff16611a7c576040517f08c379a0000000000000000000000000000000000000000000000000000000008152600401611a73906130b0565b60405180910390fd5b600c60009054906101000a900460ff1615611acc576040517f08c379a0000000000000000000000000000000000000000000000000000000008152600401611ac39061311c565b60405180910390fd5b6000805b600680549050811015611d1857600060068281548110611af357611af261313c565b5b9060005260206000200160009054906101000a900473ffffffffffffffffffffffffffffffffffffffff169050600560008273ffffffffffffffffffffffffffffffffffffffff1673ffffffffffffffffffffffffffffffffffffffff16815260200190815260200160002060009054906101000a900460ff16611d04576000600d60008373ffffffffffffffffffffffffffffffffffffffff1673ffffffffffffffffffffffffffffffffffffffff1681526020019081526020016000205490506000811115611d02576001600e60008473ffffffffffffffffffffffffffffffffffffffff1673ffffffffffffffffffffffffffffffffffffffff16815260200190815260200160002060006101000a81548160ff021916908315150217905550600760009054906101000a900473ffffffffffffffffffffffffffffffffffffffff1673ffffffffffffffffffffffffffffffffffffffff166340c10f1983836040518363ffffffff1660e01b8152600401611c7392919061316b565b600060405180830381600087803b158015611c8d57600080fd5b505af1158015611ca1573d6000803e3d6000fd5b505050508084611cb19190612aa6565b93508173ffffffffffffffffffffffffffffffffffffffff167f896e034966eaaf1adc54acc0f257056febbd300c9e47182cf761982cf1f5e43082604051611cf991906126b6565b60405180910390a25b505b508080611d1090613194565b915050611ad0565b506001600c60006101000a81548160ff0219169083151502179055507fe931a2ade2ca5ad4fb6fc001fa5a3d7f2d8c05b601e8322cba7e5f513512314d81604051611d6391906126b6565b60405180910390a150611d746125ba565b565b600154421015611dbb576040517f08c379a0000000000000000000000000000000000000000000000000000000008152600401611db290612b92565b60405180910390fd5b600360009054906101000a900460ff1615611e0b576040517f08c379a0000000000000000000000000000000000000000000000000000000008152600401611e0290613228565b60405180910390fd5b7f000000000000000000000000000000000000000000000000000000000000000060025410611e50576001600360006101000a81548160ff0219169083151502179055505b7f170c266b6c51c5ee0e58a9ff23f733b295ff6c6b28f3c61a2ed3dc74a0902f2d600360009054906101000a900460ff16604051611e8e9190612682565b60405180910390a1565b600b6020528060005260406000206000915054906101000a900460ff1681565b60095481565b60606006805480602002602001604051908101604052809291908181526020018280548015611f4257602002820191906000526020600020905b8160009054906101000a900473ffffffffffffffffffffffffffffffffffffffff1673ffffffffffffffffffffffffffffffffffffffff1681526020019060010190808311611ef8575b5050505050905090565b60007f0000000000000000000000000000000000000000000000000000000000000000905090565b600080600360009054906101000a900460ff16611f975760008091509150611fef565b600154421015611fad5760008091509150611fef565b603c600154611fbc9190612aa6565b4210611fce5760008091509150611fef565b42603c600154611fde9190612aa6565b611fe89190612fc4565b6001915091505b9091565b600e6020528060005260406000206000915054906101000a900460ff1681565b6006818154811061202357600080fd5b906000526020600020016000915054906101000a900473ffffffffffffffffffffffffffffffffffffffff1681565b6000806000806000807f000000000000000000000000000000000000000000000000000000000000000060025460015442101561209c57426001546120979190612fc4565b61209f565b60005b600680549050600360009054906101000a900460ff16600a54600854116120c75760006120d8565b600a546008546120d79190612fc4565b5b955095509550955095509550909192939495565b7f000000000000000000000000000000000000000000000000000000000000000081565b6001544210612154576040517f08c379a000000000000000000000000000000000000000000000000000000000815260040161214b90612e60565b60405180910390fd5b61215c61256b565b6000341161219f576040517f08c379a0000000000000000000000000000000000000000000000000000000008152600401612196906132ba565b60405180910390fd5b6000612710346121af91906132da565b905060008190506000600854600a5410801561220a57506000600460003373ffffffffffffffffffffffffffffffffffffffff1673ffffffffffffffffffffffffffffffffffffffff16815260200190815260200160002054145b156122ae57600190506001600b60003373ffffffffffffffffffffffffffffffffffffffff1673ffffffffffffffffffffffffffffffffffffffff16815260200190815260200160002060006101000a81548160ff021916908315150217905550600a600081548092919061227e90613194565b91905055506127106009546127106122969190612aa6565b846122a191906132da565b6122ab919061334b565b91505b6000600460003373ffffffffffffffffffffffffffffffffffffffff1673ffffffffffffffffffffffffffffffffffffffff1681526020019081526020016000205403612359576006339080600181540180825580915050600190039060005260206000200160009091909190916101000a81548173ffffffffffffffffffffffffffffffffffffffff021916908373ffffffffffffffffffffffffffffffffffffffff1602179055505b34600460003373ffffffffffffffffffffffffffffffffffffffff1673ffffffffffffffffffffffffffffffffffffffff16815260200190815260200160002060008282546123a89190612aa6565b9250508190555034600260008282546123c19190612aa6565b9250508190555081600d60003373ffffffffffffffffffffffffffffffffffffffff1673ffffffffffffffffffffffffffffffffffffffff16815260200190815260200160002060008282546124179190612aa6565b925050819055503373ffffffffffffffffffffffffffffffffffffffff167f25dd7e298b084f3a9ca8071f7815ded7e3483e4581456edd77d33fe4616898b53484846040516124689392919061337c565b60405180910390a27f0000000000000000000000000000000000000000000000000000000000000000600254106124ed576001600360006101000a81548160ff0219169083151502179055507f170c266b6c51c5ee0e58a9ff23f733b295ff6c6b28f3c61a2ed3dc74a0902f2d60016040516124e49190612682565b60405180910390a15b5050506124f86125ba565b565b6000600154421061250e576000905061251f565b4260015461251c9190612fc4565b90505b90565b6000600d60008373ffffffffffffffffffffffffffffffffffffffff1673ffffffffffffffffffffffffffffffffffffffff168152602001908152602001600020549050919050565b6002600054036125b0576040517f08c379a00000000000000000000000000000000000000000000000000000000081526004016125a7906133ff565b60405180910390fd5b6002600081905550565b6001600081905550565b600082825260208201905092915050565b7f44697265637420455448207472616e73666572206e6f7420616c6c6f7765642e60008201527f20506c656173652063616c6c20696e76657374282920696e73746561642e0000602082015250565b6000612631603e836125c4565b915061263c826125d5565b604082019050919050565b6000602082019050818103600083015261266081612624565b9050919050565b60008115159050919050565b61267c81612667565b82525050565b60006020820190506126976000830184612673565b92915050565b6000819050919050565b6126b08161269d565b82525050565b60006020820190506126cb60008301846126a7565b92915050565b600080fd5b600073ffffffffffffffffffffffffffffffffffffffff82169050919050565b6000612701826126d6565b9050919050565b612711816126f6565b811461271c57600080fd5b50565b60008135905061272e81612708565b92915050565b60006020828403121561274a576127496126d1565b5b60006127588482850161271f565b91505092915050565b600081519050919050565b60005b8381101561278a57808201518184015260208101905061276f565b60008484015250505050565b6000601f19601f8301169050919050565b60006127b282612761565b6127bc81856125c4565b93506127cc81856020860161276c565b6127d581612796565b840191505092915050565b60006040820190506127f56000830185612673565b818103602083015261280781846127a7565b90509392505050565b6000819050919050565b600061283561283061282b846126d6565b612810565b6126d6565b9050919050565b60006128478261281a565b9050919050565b60006128598261283c565b9050919050565b6128698161284e565b82525050565b60006020820190506128846000830184612860565b92915050565b612893816126f6565b82525050565b60006020820190506128ae600083018461288a565b92915050565b600081519050919050565b600082825260208201905092915050565b6000819050602082019050919050565b6128e9816126f6565b82525050565b60006128fb83836128e0565b60208301905092915050565b6000602082019050919050565b600061291f826128b4565b61292981856128bf565b9350612934836128d0565b8060005b8381101561296557815161294c88826128ef565b975061295783612907565b925050600181019050612938565b5085935050505092915050565b6000602082019050818103600083015261298c8184612914565b905092915050565b60006040820190506129a960008301856126a7565b6129b66020830184612673565b9392505050565b6129c68161269d565b81146129d157600080fd5b50565b6000813590506129e3816129bd565b92915050565b6000602082840312156129ff576129fe6126d1565b5b6000612a0d848285016129d4565b91505092915050565b600060c082019050612a2b60008301896126a7565b612a3860208301886126a7565b612a4560408301876126a7565b612a5260608301866126a7565b612a5f6080830185612673565b612a6c60a08301846126a7565b979650505050505050565b7f4e487b7100000000000000000000000000000000000000000000000000000000600052601160045260246000fd5b6000612ab18261269d565b9150612abc8361269d565b9250828201905080821115612ad457612ad3612a77565b5b92915050565b7f4f6e6c792070726f6a656374206f776e65722063616e2063616c6c0000000000600082015250565b6000612b10601b836125c4565b9150612b1b82612ada565b602082019050919050565b60006020820190508181036000830152612b3f81612b03565b9050919050565b7f43616d706169676e20686173206e6f7420656e64656420796574000000000000600082015250565b6000612b7c601a836125c4565b9150612b8782612b46565b602082019050919050565b60006020820190508181036000830152612bab81612b6f565b9050919050565b7fe586b7e99d99e69c9fe5b7b2e7bb93e69d9f0000000000000000000000000000600082015250565b6000612be86012836125c4565b9150612bf382612bb2565b602082019050919050565b60006020820190508181036000830152612c1781612bdb565b9050919050565b7f46756e647320616c72656164792077697468647261776e000000000000000000600082015250565b6000612c546017836125c4565b9150612c5f82612c1e565b602082019050919050565b60006020820190508181036000830152612c8381612c47565b9050919050565b7f43616d706169676e206e6f74207375636365737366756c000000000000000000600082015250565b6000612cc06017836125c4565b9150612ccb82612c8a565b602082019050919050565b60006020820190508181036000830152612cef81612cb3565b9050919050565b7f4e6f2066756e647320746f207769746864726177000000000000000000000000600082015250565b6000612d2c6014836125c4565b9150612d3782612cf6565b602082019050919050565b60006020820190508181036000830152612d5b81612d1f565b9050919050565b600081905092915050565b50565b6000612d7d600083612d62565b9150612d8882612d6d565b600082019050919050565b6000612d9e82612d70565b9150819050919050565b7f5472616e73666572206661696c65640000000000000000000000000000000000600082015250565b6000612dde600f836125c4565b9150612de982612da8565b602082019050919050565b60006020820190508181036000830152612e0d81612dd1565b9050919050565b7f43616d706169676e2068617320656e6465640000000000000000000000000000600082015250565b6000612e4a6012836125c4565b9150612e5582612e14565b602082019050919050565b60006020820190508181036000830152612e7981612e3d565b9050919050565b7f416c726561647920726566756e64656400000000000000000000000000000000600082015250565b6000612eb66010836125c4565b9150612ec182612e80565b602082019050919050565b60006020820190508181036000830152612ee581612ea9565b9050919050565b7f4e6f20696e766573746d656e7420746f20726566756e64000000000000000000600082015250565b6000612f226017836125c4565b9150612f2d82612eec565b602082019050919050565b60006020820190508181036000830152612f5181612f15565b9050919050565b7f436f6f6c646f776e20706572696f642065787069726564000000000000000000600082015250565b6000612f8e6017836125c4565b9150612f9982612f58565b602082019050919050565b60006020820190508181036000830152612fbd81612f81565b9050919050565b6000612fcf8261269d565b9150612fda8361269d565b9250828203905081811115612ff257612ff1612a77565b5b92915050565b7f526566756e64206661696c656400000000000000000000000000000000000000600082015250565b600061302e600d836125c4565b915061303982612ff8565b602082019050919050565b6000602082019050818103600083015261305d81613021565b9050919050565b7f43616d706169676e206973206e6f74207375636365737366756c000000000000600082015250565b600061309a601a836125c4565b91506130a582613064565b602082019050919050565b600060208201905081810360008301526130c98161308d565b9050919050565b7f546f6b656e7320616c7265616479206469737472696275746564000000000000600082015250565b6000613106601a836125c4565b9150613111826130d0565b602082019050919050565b60006020820190508181036000830152613135816130f9565b9050919050565b7f4e487b7100000000000000000000000000000000000000000000000000000000600052603260045260246000fd5b6000604082019050613180600083018561288a565b61318d60208301846126a7565b9392505050565b600061319f8261269d565b91507fffffffffffffffffffffffffffffffffffffffffffffffffffffffffffffffff82036131d1576131d0612a77565b5b600182019050919050565b7f43616d706169676e20616c72656164792066696e616c697a6564000000000000600082015250565b6000613212601a836125c4565b915061321d826131dc565b602082019050919050565b6000602082019050818103600083015261324181613205565b9050919050565b7f496e766573746d656e74206d7573742062652067726561746572207468616e2060008201527f3000000000000000000000000000000000000000000000000000000000000000602082015250565b60006132a46021836125c4565b91506132af82613248565b604082019050919050565b600060208201905081810360008301526132d381613297565b9050919050565b60006132e58261269d565b91506132f08361269d565b92508282026132fe8161269d565b9150828204841483151761331557613314612a77565b5b5092915050565b7f4e487b7100000000000000000000000000000000000000000000000000000000600052601260045260246000fd5b60006133568261269d565b91506133618361269d565b9250826133715761337061331c565b5b828204905092915050565b600060608201905061339160008301866126a7565b61339e60208301856126a7565b6133ab6040830184612673565b949350505050565b7f5265656e7472616e637947756172643a207265656e7472616e742063616c6c00600082015250565b60006133e9601f836125c4565b91506133f4826133b3565b602082019050919050565b60006020820190508181036000830152613418816133dc565b905091905056fea2646970667358221220f967f995feb2ffe46332752424e143b6be5886eedf9058d1513a7e110c32457564736f6c63430008120033",
  "linkReferences": {},
  "deployedLinkReferences": {}
}