{
  "_format": "hh-sol-artifact-1",
  "contractName": "Crowdfunding",
  "sourceName": "contracts/Crowdfunding.sol",
  "abi": [
    {
      "inputs": [
        {
          "internalType": "uint256",
          "name": "goal",
          "type": "uint256"
        },
        {
          "internalType": "uint256",
          "name": "durationInSeconds",
          "type": "uint256"
        },
        {
          "internalType": "address",
          "name": "tokenAddress",
          "type": "address"
        },
        {
          "internalType": "uint256",
          "name": "earlyBirdLimit",
          "type": "uint256"
        },
        {
          "internalType": "uint256",
          "name": "earlyBirdBonusRate",
          "type": "uint256"
        }
      ],
      "stateMutability": "nonpayable",
      "type": "constructor"
    },
    {
      "anonymous": false,
      "inputs": [
        {
          "indexed": false,
          "internalType": "bool",
          "name": "success",
          "type": "bool"
        }
      ],
      "name": "CampaignFinalized",
      "type": "event"
    },
    {
      "anonymous": false,
      "inputs": [
        {
          "indexed": false,
          "internalType": "uint256",
          "name": "limit",
          "type": "uint256"
        },
        {
          "indexed": false,
          "internalType": "uint256",
          "name": "bonusRate",
          "type": "uint256"
        }
      ],
      "name": "EarlyBirdSet",
      "type": "event"
    },
    {
      "anonymous": false,
      "inputs": [
        {
          "indexed": true,
          "internalType": "address",
          "name": "investor",
          "type": "address"
        },
        {
          "indexed": false,
          "internalType": "uint256",
          "name": "amount",
          "type": "uint256"
        },
        {
          "indexed": false,
          "internalType": "bool",
          "name": "isEarlyBird",
          "type": "bool"
        }
      ],
      "name": "Invested",
      "type": "event"
    },
    {
      "anonymous": false,
      "inputs": [
        {
          "indexed": false,
          "internalType": "uint256",
          "name": "deadline",
          "type": "uint256"
        }
      ],
      "name": "RefundWindowSet",
      "type": "event"
    },
    {
      "anonymous": false,
      "inputs": [
        {
          "indexed": true,
          "internalType": "address",
          "name": "investor",
          "type": "address"
        },
        {
          "indexed": false,
          "internalType": "uint256",
          "name": "amount",
          "type": "uint256"
        }
      ],
      "name": "Refunded",
      "type": "event"
    },
    {
      "anonymous": false,
      "inputs": [
        {
          "indexed": true,
          "internalType": "address",
          "name": "investor",
          "type": "address"
        },
        {
          "indexed": false,
          "internalType": "uint256",
          "name": "amount",
          "type": "uint256"
        },
        {
          "indexed": false,
          "internalType": "uint256",
          "name": "bonus",
          "type": "uint256"
        }
      ],
      "name": "TokensMinted",
      "type": "event"
    },
    {
      "anonymous": false,
      "inputs": [
        {
          "indexed": true,
          "internalType": "address",
          "name": "owner",
          "type": "address"
        },
        {
          "indexed": false,
          "internalType": "uint256",
          "name": "amount",
          "type": "uint256"
        }
      ],
      "name": "Withdrawn",
      "type": "event"
    },
    {
      "inputs": [],
      "name": "closeRefundWindow",
      "outputs": [],
      "stateMutability": "nonpayable",
      "type": "function"
    },
    {
      "inputs": [],
      "name": "finalizeCampaign",
      "outputs": [],
      "stateMutability": "nonpayable",
      "type": "function"
    },
    {
      "inputs": [],
      "name": "getBalance",
      "outputs": [
        {
          "internalType": "uint256",
          "name": "",
          "type": "uint256"
        }
      ],
      "stateMutability": "view",
      "type": "function"
    },
    {
      "inputs": [],
      "name": "getDeadline",
      "outputs": [
        {
          "internalType": "uint256",
          "name": "",
          "type": "uint256"
        }
      ],
      "stateMutability": "view",
      "type": "function"
    },
    {
      "inputs": [],
      "name": "getEarlyBirdBonusRate",
      "outputs": [
        {
          "internalType": "uint256",
          "name": "",
          "type": "uint256"
        }
      ],
      "stateMutability": "view",
      "type": "function"
    },
    {
      "inputs": [],
      "name": "getEarlyBirdLimit",
      "outputs": [
        {
          "internalType": "uint256",
          "name": "",
          "type": "uint256"
        }
      ],
      "stateMutability": "view",
      "type": "function"
    },
    {
      "inputs": [],
      "name": "getGoal",
      "outputs": [
        {
          "internalType": "uint256",
          "name": "",
          "type": "uint256"
        }
      ],
      "stateMutability": "view",
      "type": "function"
    },
    {
      "inputs": [],
      "name": "getInvestorCount",
      "outputs": [
        {
          "internalType": "uint256",
          "name": "",
          "type": "uint256"
        }
      ],
      "stateMutability": "view",
      "type": "function"
    },
    {
      "inputs": [],
      "name": "getIsSuccessful",
      "outputs": [
        {
          "internalType": "bool",
          "name": "",
          "type": "bool"
        }
      ],
      "stateMutability": "view",
      "type": "function"
    },
    {
      "inputs": [],
      "name": "getRaisedAmount",
      "outputs": [
        {
          "internalType": "uint256",
          "name": "",
          "type": "uint256"
        }
      ],
      "stateMutability": "view",
      "type": "function"
    },
    {
      "inputs": [],
      "name": "getRefundDeadline",
      "outputs": [
        {
          "internalType": "uint256",
          "name": "",
          "type": "uint256"
        }
      ],
      "stateMutability": "view",
      "type": "function"
    },
    {
      "inputs": [],
      "name": "i_owner",
      "outputs": [
        {
          "internalType": "address",
          "name": "",
          "type": "address"
        }
      ],
      "stateMutability": "view",
      "type": "function"
    },
    {
      "inputs": [],
      "name": "invest",
      "outputs": [],
      "stateMutability": "payable",
      "type": "function"
    },
    {
      "inputs": [],
      "name": "isRefundWindowOpen",
      "outputs": [
        {
          "internalType": "bool",
          "name": "",
          "type": "bool"
        }
      ],
      "stateMutability": "view",
      "type": "function"
    },
    {
      "inputs": [],
      "name": "refund",
      "outputs": [],
      "stateMutability": "nonpayable",
      "type": "function"
    },
    {
      "inputs": [],
      "name": "s_deadline",
      "outputs": [
        {
          "internalType": "uint256",
          "name": "",
          "type": "uint256"
        }
      ],
      "stateMutability": "view",
      "type": "function"
    },
    {
      "inputs": [],
      "name": "s_earlyBirdBonusRate",
      "outputs": [
        {
          "internalType": "uint256",
          "name": "",
          "type": "uint256"
        }
      ],
      "stateMutability": "view",
      "type": "function"
    },
    {
      "inputs": [],
      "name": "s_earlyBirdLimit",
      "outputs": [
        {
          "internalType": "uint256",
          "name": "",
          "type": "uint256"
        }
      ],
      "stateMutability": "view",
      "type": "function"
    },
    {
      "inputs": [],
      "name": "s_goal",
      "outputs": [
        {
          "internalType": "uint256",
          "name": "",
          "type": "uint256"
        }
      ],
      "stateMutability": "view",
      "type": "function"
    },
    {
      "inputs": [
        {
          "internalType": "uint256",
          "name": "",
          "type": "uint256"
        }
      ],
      "name": "s_investorAddresses",
      "outputs": [
        {
          "internalType": "address",
          "name": "",
          "type": "address"
        }
      ],
      "stateMutability": "view",
      "type": "function"
    },
    {
      "inputs": [],
      "name": "s_investorCount",
      "outputs": [
        {
          "internalType": "uint256",
          "name": "",
          "type": "uint256"
        }
      ],
      "stateMutability": "view",
      "type": "function"
    },
    {
      "inputs": [
        {
          "internalType": "address",
          "name": "",
          "type": "address"
        }
      ],
      "name": "s_investors",
      "outputs": [
        {
          "internalType": "uint256",
          "name": "",
          "type": "uint256"
        }
      ],
      "stateMutability": "view",
      "type": "function"
    },
    {
      "inputs": [
        {
          "internalType": "address",
          "name": "",
          "type": "address"
        }
      ],
      "name": "s_isEarlyBird",
      "outputs": [
        {
          "internalType": "bool",
          "name": "",
          "type": "bool"
        }
      ],
      "stateMutability": "view",
      "type": "function"
    },
    {
      "inputs": [],
      "name": "s_isSuccessful",
      "outputs": [
        {
          "internalType": "bool",
          "name": "",
          "type": "bool"
        }
      ],
      "stateMutability": "view",
      "type": "function"
    },
    {
      "inputs": [],
      "name": "s_isWithdrawn",
      "outputs": [
        {
          "internalType": "bool",
          "name": "",
          "type": "bool"
        }
      ],
      "stateMutability": "view",
      "type": "function"
    },
    {
      "inputs": [],
      "name": "s_raisedAmount",
      "outputs": [
        {
          "internalType": "uint256",
          "name": "",
          "type": "uint256"
        }
      ],
      "stateMutability": "view",
      "type": "function"
    },
    {
      "inputs": [],
      "name": "s_refundDeadline",
      "outputs": [
        {
          "internalType": "uint256",
          "name": "",
          "type": "uint256"
        }
      ],
      "stateMutability": "view",
      "type": "function"
    },
    {
      "inputs": [],
      "name": "s_refundWindowOpen",
      "outputs": [
        {
          "internalType": "bool",
          "name": "",
          "type": "bool"
        }
      ],
      "stateMutability": "view",
      "type": "function"
    },
    {
      "inputs": [],
      "name": "s_token",
      "outputs": [
        {
          "internalType": "contract ProjectToken",
          "name": "",
          "type": "address"
        }
      ],
      "stateMutability": "view",
      "type": "function"
    },
    {
      "inputs": [
        {
          "internalType": "uint256",
          "name": "durationInSeconds",
          "type": "uint256"
        }
      ],
      "name": "setRefundWindow",
      "outputs": [],
      "stateMutability": "nonpayable",
      "type": "function"
    },
    {
      "inputs": [],
      "name": "withdrawFunds",
      "outputs": [],
      "stateMutability": "nonpayable",
      "type": "function"
    }
  ],
  "bytecode": "0x60e06040523480156200001157600080fd5b50604051620025a1380380620025a18339818101604052810190620000379190620001d7565b3373ffffffffffffffffffffffffffffffffffffffff1660808173ffffffffffffffffffffffffffffffffffffffff16815250508460a0818152505083426200008191906200028e565b60c0818152505082600560006101000a81548173ffffffffffffffffffffffffffffffffffffffff021916908373ffffffffffffffffffffffffffffffffffffffff16021790555081600681905550806007819055506000600160006101000a81548160ff02191690831515021790555060006001806101000a81548160ff0219169083151502179055506000600a60006101000a81548160ff0219169083151502179055505050505050620002c9565b600080fd5b6000819050919050565b6200014c8162000137565b81146200015857600080fd5b50565b6000815190506200016c8162000141565b92915050565b600073ffffffffffffffffffffffffffffffffffffffff82169050919050565b60006200019f8262000172565b9050919050565b620001b18162000192565b8114620001bd57600080fd5b50565b600081519050620001d181620001a6565b92915050565b600080600080600060a08688031215620001f657620001f562000132565b5b600062000206888289016200015b565b955050602062000219888289016200015b565b94505060406200022c88828901620001c0565b93505060606200023f888289016200015b565b925050608062000252888289016200015b565b9150509295509295909350565b7f4e487b7100000000000000000000000000000000000000000000000000000000600052601160045260246000fd5b60006200029b8262000137565b9150620002a88362000137565b9250828201905080821115620002c357620002c26200025f565b5b92915050565b60805160a05160c05161224d62000354600039600081816107a901528181610a9001528181610ab401528181610dc601528181610f990152818161107b01526114c8015260008181610a660152818161112e015261143f01526000818161071b01528181610908015281816109d201528181610e4201528181610f0b01526114a4015261224d6000f3fe6080604052600436106101d85760003560e01c80636739a0f211610102578063960524e311610095578063b97a7d2411610064578063b97a7d2414610638578063c553bfef14610663578063dba6335f146106a0578063e8b5e51f146106cb576101d8565b8063960524e31461058e578063a1211bc0146105b9578063a1775822146105d0578063a92398811461060d576101d8565b8063875c3a66116100d1578063875c3a66146104d2578063889a55af1461050f5780638c5d80dd1461053a5780638e75e48214610563576101d8565b80636739a0f21461043a57806368029bfe1461046557806372d0bdf914610490578063872b77a6146104bb576101d8565b80633da8c3a71161017a57806356e779a51161014957806356e779a5146103a2578063590e1ae3146103cd5780635f8d96de146103e457806365156b311461040f576101d8565b80633da8c3a7146102f657806348816b3f14610321578063489e757f1461034c578063493284ff14610377576101d8565b806312065fe0116101b657806312065fe01461025e57806319c165441461028957806324600fc3146102b457806338ea45fc146102cb576101d8565b806307266aa8146101dd5780630c5220bb146102085780630cfc2fc514610233575b600080fd5b3480156101e957600080fd5b506101f26106d5565b6040516101ff91906117b9565b60405180910390f35b34801561021457600080fd5b5061021d6106ec565b60405161022a91906117ed565b60405180910390f35b34801561023f57600080fd5b506102486106f6565b60405161025591906117b9565b60405180910390f35b34801561026a57600080fd5b50610273610707565b60405161028091906117ed565b60405180910390f35b34801561029557600080fd5b5061029e61070f565b6040516102ab91906117ed565b60405180910390f35b3480156102c057600080fd5b506102c9610719565b005b3480156102d757600080fd5b506102e0610a41565b6040516102ed91906117ed565b60405180910390f35b34801561030257600080fd5b5061030b610a47565b60405161031891906117b9565b60405180910390f35b34801561032d57600080fd5b50610336610a5a565b60405161034391906117ed565b60405180910390f35b34801561035857600080fd5b50610361610a64565b60405161036e91906117ed565b60405180910390f35b34801561038357600080fd5b5061038c610a88565b60405161039991906117ed565b60405180910390f35b3480156103ae57600080fd5b506103b7610a8e565b6040516103c491906117ed565b60405180910390f35b3480156103d957600080fd5b506103e2610ab2565b005b3480156103f057600080fd5b506103f9610dc2565b60405161040691906117ed565b60405180910390f35b34801561041b57600080fd5b50610424610dea565b6040516104319190611887565b60405180910390f35b34801561044657600080fd5b5061044f610e10565b60405161045c91906117ed565b60405180910390f35b34801561047157600080fd5b5061047a610e16565b60405161048791906117b9565b60405180910390f35b34801561049c57600080fd5b506104a5610e29565b6040516104b291906117b9565b60405180910390f35b3480156104c757600080fd5b506104d0610e40565b005b3480156104de57600080fd5b506104f960048036038101906104f491906118e5565b610eeb565b60405161050691906117ed565b60405180910390f35b34801561051b57600080fd5b50610524610f03565b60405161053191906117ed565b60405180910390f35b34801561054657600080fd5b50610561600480360381019061055c919061193e565b610f09565b005b34801561056f57600080fd5b50610578611063565b60405161058591906117ed565b60405180910390f35b34801561059a57600080fd5b506105a361106c565b6040516105b091906117ed565b60405180910390f35b3480156105c557600080fd5b506105ce611079565b005b3480156105dc57600080fd5b506105f760048036038101906105f291906118e5565b611415565b60405161060491906117b9565b60405180910390f35b34801561061957600080fd5b50610622611435565b60405161062f91906117ed565b60405180910390f35b34801561064457600080fd5b5061064d61143b565b60405161065a91906117ed565b60405180910390f35b34801561066f57600080fd5b5061068a6004803603810190610685919061193e565b611463565b604051610697919061197a565b60405180910390f35b3480156106ac57600080fd5b506106b56114a2565b6040516106c2919061197a565b60405180910390f35b6106d36114c6565b005b6000600160009054906101000a900460ff16905090565b6000600954905090565b60018054906101000a900460ff1681565b600047905090565b6000600754905090565b7f000000000000000000000000000000000000000000000000000000000000000073ffffffffffffffffffffffffffffffffffffffff163373ffffffffffffffffffffffffffffffffffffffff16146107a7576040517f08c379a000000000000000000000000000000000000000000000000000000000815260040161079e906119f2565b60405180910390fd5b7f000000000000000000000000000000000000000000000000000000000000000042101561080a576040517f08c379a000000000000000000000000000000000000000000000000000000000815260040161080190611a5e565b60405180910390fd5b600160009054906101000a900460ff16610859576040517f08c379a000000000000000000000000000000000000000000000000000000000815260040161085090611aca565b60405180910390fd5b60018054906101000a900460ff16156108a7576040517f08c379a000000000000000000000000000000000000000000000000000000000815260040161089e90611b36565b60405180910390fd5b600047116108ea576040517f08c379a00000000000000000000000000000000000000000000000000000000081526004016108e190611ba2565b60405180910390fd5b60018060016101000a81548160ff02191690831515021790555060007f000000000000000000000000000000000000000000000000000000000000000073ffffffffffffffffffffffffffffffffffffffff164760405161094a90611bf3565b60006040518083038185875af1925050503d8060008114610987576040519150601f19603f3d011682016040523d82523d6000602084013e61098c565b606091505b50509050806109d0576040517f08c379a00000000000000000000000000000000000000000000000000000000081526004016109c790611c54565b60405180910390fd5b7f000000000000000000000000000000000000000000000000000000000000000073ffffffffffffffffffffffffffffffffffffffff167f7084f5476618d8e60b11ef0d7d3f06914655adb8793e28ff7f018d4c76d505d547604051610a3691906117ed565b60405180910390a250565b60005481565b600160009054906101000a900460ff1681565b6000600654905090565b7f000000000000000000000000000000000000000000000000000000000000000081565b60045481565b7f000000000000000000000000000000000000000000000000000000000000000081565b7f0000000000000000000000000000000000000000000000000000000000000000421015610b15576040517f08c379a0000000000000000000000000000000000000000000000000000000008152600401610b0c90611a5e565b60405180910390fd5b600160009054906101000a900460ff1615610b65576040517f08c379a0000000000000000000000000000000000000000000000000000000008152600401610b5c90611ce6565b60405180910390fd5b600a60009054906101000a900460ff16610bb4576040517f08c379a0000000000000000000000000000000000000000000000000000000008152600401610bab90611d52565b60405180910390fd5b6009544210610bf8576040517f08c379a0000000000000000000000000000000000000000000000000000000008152600401610bef90611dbe565b60405180910390fd5b6000600260003373ffffffffffffffffffffffffffffffffffffffff1673ffffffffffffffffffffffffffffffffffffffff16815260200190815260200160002054905060008111610c7f576040517f08c379a0000000000000000000000000000000000000000000000000000000008152600401610c7690611e2a565b60405180910390fd5b6000600260003373ffffffffffffffffffffffffffffffffffffffff1673ffffffffffffffffffffffffffffffffffffffff1681526020019081526020016000208190555060003373ffffffffffffffffffffffffffffffffffffffff1682604051610cea90611bf3565b60006040518083038185875af1925050503d8060008114610d27576040519150601f19603f3d011682016040523d82523d6000602084013e610d2c565b606091505b5050905080610d70576040517f08c379a0000000000000000000000000000000000000000000000000000000008152600401610d6790611e96565b60405180910390fd5b3373ffffffffffffffffffffffffffffffffffffffff167fd7dee2702d63ad89917b6a4da9981c90c4d24f8c2bdfd64c604ecae57d8d065183604051610db691906117ed565b60405180910390a25050565b60007f0000000000000000000000000000000000000000000000000000000000000000905090565b600560009054906101000a900473ffffffffffffffffffffffffffffffffffffffff1681565b60095481565b600a60009054906101000a900460ff1681565b6000600a60009054906101000a900460ff16905090565b7f000000000000000000000000000000000000000000000000000000000000000073ffffffffffffffffffffffffffffffffffffffff163373ffffffffffffffffffffffffffffffffffffffff1614610ece576040517f08c379a0000000000000000000000000000000000000000000000000000000008152600401610ec5906119f2565b60405180910390fd5b6000600a60006101000a81548160ff021916908315150217905550565b60026020528060005260406000206000915090505481565b60065481565b7f000000000000000000000000000000000000000000000000000000000000000073ffffffffffffffffffffffffffffffffffffffff163373ffffffffffffffffffffffffffffffffffffffff1614610f97576040517f08c379a0000000000000000000000000000000000000000000000000000000008152600401610f8e906119f2565b60405180910390fd5b7f0000000000000000000000000000000000000000000000000000000000000000421015610ffa576040517f08c379a0000000000000000000000000000000000000000000000000000000008152600401610ff190611a5e565b60405180910390fd5b80426110069190611ee5565b6009819055506001600a60006101000a81548160ff0219169083151502179055507fddeb8ed0aa4d5f03d691c1b4c6a8c918425237eb21e4731de04c343a25fdafa360095460405161105891906117ed565b60405180910390a150565b60008054905090565b6000600380549050905090565b7f00000000000000000000000000000000000000000000000000000000000000004210156110dc576040517f08c379a00000000000000000000000000000000000000000000000000000000081526004016110d390611a5e565b60405180910390fd5b600160009054906101000a900460ff161561112c576040517f08c379a000000000000000000000000000000000000000000000000000000000815260040161112390611f65565b60405180910390fd5b7f0000000000000000000000000000000000000000000000000000000000000000600054106113b15760018060006101000a81548160ff02191690831515021790555060005b6003805490508110156113ab5760006003828154811061119557611194611f85565b5b9060005260206000200160009054906101000a900473ffffffffffffffffffffffffffffffffffffffff1690506000600260008373ffffffffffffffffffffffffffffffffffffffff1673ffffffffffffffffffffffffffffffffffffffff1681526020019081526020016000205490506000670de0b6b3a76400006127108361121f9190611fb4565b6112299190612025565b90506000600860008573ffffffffffffffffffffffffffffffffffffffff1673ffffffffffffffffffffffffffffffffffffffff16815260200190815260200160002060009054906101000a900460ff16156112ab57612710600754836112909190611fb4565b61129a9190612025565b905080826112a89190611ee5565b91505b600082111561139457600560009054906101000a900473ffffffffffffffffffffffffffffffffffffffff1673ffffffffffffffffffffffffffffffffffffffff166340c10f1985846040518363ffffffff1660e01b8152600401611311929190612056565b600060405180830381600087803b15801561132b57600080fd5b505af115801561133f573d6000803e3d6000fd5b505050508373ffffffffffffffffffffffffffffffffffffffff167f2e8ac5177a616f2aec08c3048f5021e4e9743ece034e8d83ba5caf76688bb475838360405161138b92919061207f565b60405180910390a25b5050505080806113a3906120a8565b915050611172565b506113cd565b6000600160006101000a81548160ff0219169083151502179055505b7f170c266b6c51c5ee0e58a9ff23f733b295ff6c6b28f3c61a2ed3dc74a0902f2d600160009054906101000a900460ff1660405161140b91906117b9565b60405180910390a1565b60086020528060005260406000206000915054906101000a900460ff1681565b60075481565b60007f0000000000000000000000000000000000000000000000000000000000000000905090565b6003818154811061147357600080fd5b906000526020600020016000915054906101000a900473ffffffffffffffffffffffffffffffffffffffff1681565b7f000000000000000000000000000000000000000000000000000000000000000081565b7f00000000000000000000000000000000000000000000000000000000000000004210611528576040517f08c379a000000000000000000000000000000000000000000000000000000000815260040161151f9061213c565b60405180910390fd5b6000341161156b576040517f08c379a0000000000000000000000000000000000000000000000000000000008152600401611562906121ce565b60405180910390fd5b6000600260003373ffffffffffffffffffffffffffffffffffffffff1673ffffffffffffffffffffffffffffffffffffffff1681526020019081526020016000205403611692576003339080600181540180825580915050600190039060005260206000200160009091909190916101000a81548173ffffffffffffffffffffffffffffffffffffffff021916908373ffffffffffffffffffffffffffffffffffffffff16021790555060046000815480929190611628906120a8565b919050555060065460045411611691576001600860003373ffffffffffffffffffffffffffffffffffffffff1673ffffffffffffffffffffffffffffffffffffffff16815260200190815260200160002060006101000a81548160ff0219169083151502179055505b5b34600260003373ffffffffffffffffffffffffffffffffffffffff1673ffffffffffffffffffffffffffffffffffffffff16815260200190815260200160002060008282546116e19190611ee5565b92505081905550346000808282546116f99190611ee5565b925050819055503373ffffffffffffffffffffffffffffffffffffffff167fa97f63a2301907bc3f25410cba7a893b7ef6ef46ba9323f168d4f956f8bba4f034600860003373ffffffffffffffffffffffffffffffffffffffff1673ffffffffffffffffffffffffffffffffffffffff16815260200190815260200160002060009054906101000a900460ff166040516117949291906121ee565b60405180910390a2565b60008115159050919050565b6117b38161179e565b82525050565b60006020820190506117ce60008301846117aa565b92915050565b6000819050919050565b6117e7816117d4565b82525050565b600060208201905061180260008301846117de565b92915050565b600073ffffffffffffffffffffffffffffffffffffffff82169050919050565b6000819050919050565b600061184d61184861184384611808565b611828565b611808565b9050919050565b600061185f82611832565b9050919050565b600061187182611854565b9050919050565b61188181611866565b82525050565b600060208201905061189c6000830184611878565b92915050565b600080fd5b60006118b282611808565b9050919050565b6118c2816118a7565b81146118cd57600080fd5b50565b6000813590506118df816118b9565b92915050565b6000602082840312156118fb576118fa6118a2565b5b6000611909848285016118d0565b91505092915050565b61191b816117d4565b811461192657600080fd5b50565b60008135905061193881611912565b92915050565b600060208284031215611954576119536118a2565b5b600061196284828501611929565b91505092915050565b611974816118a7565b82525050565b600060208201905061198f600083018461196b565b92915050565b600082825260208201905092915050565b7f4f6e6c792070726f6a656374206f776e65722063616e2063616c6c0000000000600082015250565b60006119dc601b83611995565b91506119e7826119a6565b602082019050919050565b60006020820190508181036000830152611a0b816119cf565b9050919050565b7f43616d706169676e2068617320656e6465640000000000000000000000000000600082015250565b6000611a48601283611995565b9150611a5382611a12565b602082019050919050565b60006020820190508181036000830152611a7781611a3b565b9050919050565b7f43616d706169676e206973206e6f74207375636365737366756c000000000000600082015250565b6000611ab4601a83611995565b9150611abf82611a7e565b602082019050919050565b60006020820190508181036000830152611ae381611aa7565b9050919050565b7f46756e647320616c72656164792077697468647261776e000000000000000000600082015250565b6000611b20601783611995565b9150611b2b82611aea565b602082019050919050565b60006020820190508181036000830152611b4f81611b13565b9050919050565b7f4e6f2066756e647320746f207769746864726177000000000000000000000000600082015250565b6000611b8c601483611995565b9150611b9782611b56565b602082019050919050565b60006020820190508181036000830152611bbb81611b7f565b9050919050565b600081905092915050565b50565b6000611bdd600083611bc2565b9150611be882611bcd565b600082019050919050565b6000611bfe82611bd0565b9150819050919050565b7f5472616e73666572206661696c65640000000000000000000000000000000000600082015250565b6000611c3e600f83611995565b9150611c4982611c08565b602082019050919050565b60006020820190508181036000830152611c6d81611c31565b9050919050565b7f43616d706169676e206973207375636365737366756c2c2063616e6e6f74207260008201527f6566756e64000000000000000000000000000000000000000000000000000000602082015250565b6000611cd0602583611995565b9150611cdb82611c74565b604082019050919050565b60006020820190508181036000830152611cff81611cc3565b9050919050565b7f526566756e642077696e646f77206973206e6f74206f70656e00000000000000600082015250565b6000611d3c601983611995565b9150611d4782611d06565b602082019050919050565b60006020820190508181036000830152611d6b81611d2f565b9050919050565b7f526566756e642077696e646f7720697320636c6f736564000000000000000000600082015250565b6000611da8601783611995565b9150611db382611d72565b602082019050919050565b60006020820190508181036000830152611dd781611d9b565b9050919050565b7f4e6f20696e766573746d656e7420746f20726566756e64000000000000000000600082015250565b6000611e14601783611995565b9150611e1f82611dde565b602082019050919050565b60006020820190508181036000830152611e4381611e07565b9050919050565b7f526566756e64206661696c656400000000000000000000000000000000000000600082015250565b6000611e80600d83611995565b9150611e8b82611e4a565b602082019050919050565b60006020820190508181036000830152611eaf81611e73565b9050919050565b7f4e487b7100000000000000000000000000000000000000000000000000000000600052601160045260246000fd5b6000611ef0826117d4565b9150611efb836117d4565b9250828201905080821115611f1357611f12611eb6565b5b92915050565b7f43616d706169676e20616c72656164792066696e616c697a6564000000000000600082015250565b6000611f4f601a83611995565b9150611f5a82611f19565b602082019050919050565b60006020820190508181036000830152611f7e81611f42565b9050919050565b7f4e487b7100000000000000000000000000000000000000000000000000000000600052603260045260246000fd5b6000611fbf826117d4565b9150611fca836117d4565b9250828202611fd8816117d4565b91508282048414831517611fef57611fee611eb6565b5b5092915050565b7f4e487b7100000000000000000000000000000000000000000000000000000000600052601260045260246000fd5b6000612030826117d4565b915061203b836117d4565b92508261204b5761204a611ff6565b5b828204905092915050565b600060408201905061206b600083018561196b565b61207860208301846117de565b9392505050565b600060408201905061209460008301856117de565b6120a160208301846117de565b9392505050565b60006120b3826117d4565b91507fffffffffffffffffffffffffffffffffffffffffffffffffffffffffffffffff82036120e5576120e4611eb6565b5b600182019050919050565b7f43616d706169676e206973206f6e676f696e6700000000000000000000000000600082015250565b6000612126601383611995565b9150612131826120f0565b602082019050919050565b6000602082019050818103600083015261215581612119565b9050919050565b7f496e766573746d656e74206d7573742062652067726561746572207468616e2060008201527f3000000000000000000000000000000000000000000000000000000000000000602082015250565b60006121b8602183611995565b91506121c38261215c565b604082019050919050565b600060208201905081810360008301526121e7816121ab565b9050919050565b600060408201905061220360008301856117de565b61221060208301846117aa565b939250505056fea264697066735822122084435178972eb943f284569b90c0b91fe2b3b54be4a9f37daeb9e31573a1e11e64736f6c63430008120033",
  "linkReferences": {},
  "deployedLinkReferences": {}
}