{
  "_format": "hh-sol-artifact-1",
  "contractName": "Crowdfunding",
  "sourceName": "contracts/Crowdfunding.sol",
  "abi": [
    {
      "inputs": [
        {
          "internalType": "uint256",
          "name": "goal",
          "type": "uint256"
        },
        {
          "internalType": "uint256",
          "name": "durationInSeconds",
          "type": "uint256"
        },
        {
          "internalType": "address",
          "name": "tokenAddress",
          "type": "address"
        },
        {
          "internalType": "uint256",
          "name": "earlyBirdLimit",
          "type": "uint256"
        },
        {
          "internalType": "uint256",
          "name": "earlyBirdBonusRate",
          "type": "uint256"
        }
      ],
      "stateMutability": "nonpayable",
      "type": "constructor"
    },
    {
      "anonymous": false,
      "inputs": [
        {
          "indexed": false,
          "internalType": "bool",
          "name": "success",
          "type": "bool"
        }
      ],
      "name": "CampaignFinalized",
      "type": "event"
    },
    {
      "anonymous": false,
      "inputs": [
        {
          "indexed": true,
          "internalType": "address",
          "name": "investor",
          "type": "address"
        },
        {
          "indexed": false,
          "internalType": "uint256",
          "name": "amount",
          "type": "uint256"
        },
        {
          "indexed": false,
          "internalType": "uint256",
          "name": "tokenAmount",
          "type": "uint256"
        },
        {
          "indexed": false,
          "internalType": "bool",
          "name": "isEarlyBird",
          "type": "bool"
        }
      ],
      "name": "Invested",
      "type": "event"
    },
    {
      "anonymous": false,
      "inputs": [
        {
          "indexed": true,
          "internalType": "address",
          "name": "investor",
          "type": "address"
        },
        {
          "indexed": false,
          "internalType": "uint256",
          "name": "amount",
          "type": "uint256"
        }
      ],
      "name": "Refunded",
      "type": "event"
    },
    {
      "anonymous": false,
      "inputs": [
        {
          "indexed": true,
          "internalType": "address",
          "name": "owner",
          "type": "address"
        },
        {
          "indexed": false,
          "internalType": "uint256",
          "name": "amount",
          "type": "uint256"
        }
      ],
      "name": "Withdrawn",
      "type": "event"
    },
    {
      "inputs": [],
      "name": "COOLDOWN_PERIOD",
      "outputs": [
        {
          "internalType": "uint256",
          "name": "",
          "type": "uint256"
        }
      ],
      "stateMutability": "view",
      "type": "function"
    },
    {
      "inputs": [
        {
          "internalType": "address",
          "name": "user",
          "type": "address"
        }
      ],
      "name": "canUserRefund",
      "outputs": [
        {
          "internalType": "bool",
          "name": "",
          "type": "bool"
        },
        {
          "internalType": "string",
          "name": "",
          "type": "string"
        }
      ],
      "stateMutability": "view",
      "type": "function"
    },
    {
      "inputs": [],
      "name": "endCampaignEarly",
      "outputs": [],
      "stateMutability": "nonpayable",
      "type": "function"
    },
    {
      "inputs": [],
      "name": "finalizeCampaign",
      "outputs": [],
      "stateMutability": "nonpayable",
      "type": "function"
    },
    {
      "inputs": [],
      "name": "getBalance",
      "outputs": [
        {
          "internalType": "uint256",
          "name": "",
          "type": "uint256"
        }
      ],
      "stateMutability": "view",
      "type": "function"
    },
    {
      "inputs": [],
      "name": "getCampaignInfo",
      "outputs": [
        {
          "internalType": "uint256",
          "name": "target",
          "type": "uint256"
        },
        {
          "internalType": "uint256",
          "name": "raised",
          "type": "uint256"
        },
        {
          "internalType": "uint256",
          "name": "remaining",
          "type": "uint256"
        },
        {
          "internalType": "uint256",
          "name": "participantCount",
          "type": "uint256"
        },
        {
          "internalType": "bool",
          "name": "isSuccessful",
          "type": "bool"
        },
        {
          "internalType": "uint256",
          "name": "earlyBirdRemaining",
          "type": "uint256"
        }
      ],
      "stateMutability": "view",
      "type": "function"
    },
    {
      "inputs": [],
      "name": "getContributors",
      "outputs": [
        {
          "internalType": "address[]",
          "name": "",
          "type": "address[]"
        }
      ],
      "stateMutability": "view",
      "type": "function"
    },
    {
      "inputs": [],
      "name": "getCooldownInfo",
      "outputs": [
        {
          "internalType": "uint256",
          "name": "remainingTime",
          "type": "uint256"
        },
        {
          "internalType": "bool",
          "name": "isActive",
          "type": "bool"
        }
      ],
      "stateMutability": "view",
      "type": "function"
    },
    {
      "inputs": [],
      "name": "getDeadline",
      "outputs": [
        {
          "internalType": "uint256",
          "name": "",
          "type": "uint256"
        }
      ],
      "stateMutability": "view",
      "type": "function"
    },
    {
      "inputs": [],
      "name": "getEarlyBirdBonusRate",
      "outputs": [
        {
          "internalType": "uint256",
          "name": "",
          "type": "uint256"
        }
      ],
      "stateMutability": "view",
      "type": "function"
    },
    {
      "inputs": [],
      "name": "getEarlyBirdLimit",
      "outputs": [
        {
          "internalType": "uint256",
          "name": "",
          "type": "uint256"
        }
      ],
      "stateMutability": "view",
      "type": "function"
    },
    {
      "inputs": [],
      "name": "getGoal",
      "outputs": [
        {
          "internalType": "uint256",
          "name": "",
          "type": "uint256"
        }
      ],
      "stateMutability": "view",
      "type": "function"
    },
    {
      "inputs": [],
      "name": "getInvestorCount",
      "outputs": [
        {
          "internalType": "uint256",
          "name": "",
          "type": "uint256"
        }
      ],
      "stateMutability": "view",
      "type": "function"
    },
    {
      "inputs": [],
      "name": "getIsSuccessful",
      "outputs": [
        {
          "internalType": "bool",
          "name": "",
          "type": "bool"
        }
      ],
      "stateMutability": "view",
      "type": "function"
    },
    {
      "inputs": [],
      "name": "getIsWithdrawn",
      "outputs": [
        {
          "internalType": "bool",
          "name": "",
          "type": "bool"
        }
      ],
      "stateMutability": "view",
      "type": "function"
    },
    {
      "inputs": [],
      "name": "getOwner",
      "outputs": [
        {
          "internalType": "address",
          "name": "",
          "type": "address"
        }
      ],
      "stateMutability": "view",
      "type": "function"
    },
    {
      "inputs": [],
      "name": "getRaisedAmount",
      "outputs": [
        {
          "internalType": "uint256",
          "name": "",
          "type": "uint256"
        }
      ],
      "stateMutability": "view",
      "type": "function"
    },
    {
      "inputs": [],
      "name": "getRemainingTime",
      "outputs": [
        {
          "internalType": "uint256",
          "name": "",
          "type": "uint256"
        }
      ],
      "stateMutability": "view",
      "type": "function"
    },
    {
      "inputs": [],
      "name": "i_owner",
      "outputs": [
        {
          "internalType": "address",
          "name": "",
          "type": "address"
        }
      ],
      "stateMutability": "view",
      "type": "function"
    },
    {
      "inputs": [],
      "name": "invest",
      "outputs": [],
      "stateMutability": "payable",
      "type": "function"
    },
    {
      "inputs": [],
      "name": "refund",
      "outputs": [],
      "stateMutability": "nonpayable",
      "type": "function"
    },
    {
      "inputs": [],
      "name": "s_currentEarlyBirdCount",
      "outputs": [
        {
          "internalType": "uint256",
          "name": "",
          "type": "uint256"
        }
      ],
      "stateMutability": "view",
      "type": "function"
    },
    {
      "inputs": [],
      "name": "s_deadline",
      "outputs": [
        {
          "internalType": "uint256",
          "name": "",
          "type": "uint256"
        }
      ],
      "stateMutability": "view",
      "type": "function"
    },
    {
      "inputs": [],
      "name": "s_earlyBirdBonusRate",
      "outputs": [
        {
          "internalType": "uint256",
          "name": "",
          "type": "uint256"
        }
      ],
      "stateMutability": "view",
      "type": "function"
    },
    {
      "inputs": [],
      "name": "s_earlyBirdLimit",
      "outputs": [
        {
          "internalType": "uint256",
          "name": "",
          "type": "uint256"
        }
      ],
      "stateMutability": "view",
      "type": "function"
    },
    {
      "inputs": [],
      "name": "s_goal",
      "outputs": [
        {
          "internalType": "uint256",
          "name": "",
          "type": "uint256"
        }
      ],
      "stateMutability": "view",
      "type": "function"
    },
    {
      "inputs": [
        {
          "internalType": "address",
          "name": "",
          "type": "address"
        }
      ],
      "name": "s_hasRefunded",
      "outputs": [
        {
          "internalType": "bool",
          "name": "",
          "type": "bool"
        }
      ],
      "stateMutability": "view",
      "type": "function"
    },
    {
      "inputs": [
        {
          "internalType": "uint256",
          "name": "",
          "type": "uint256"
        }
      ],
      "name": "s_investorAddresses",
      "outputs": [
        {
          "internalType": "address",
          "name": "",
          "type": "address"
        }
      ],
      "stateMutability": "view",
      "type": "function"
    },
    {
      "inputs": [
        {
          "internalType": "address",
          "name": "",
          "type": "address"
        }
      ],
      "name": "s_investors",
      "outputs": [
        {
          "internalType": "uint256",
          "name": "",
          "type": "uint256"
        }
      ],
      "stateMutability": "view",
      "type": "function"
    },
    {
      "inputs": [
        {
          "internalType": "address",
          "name": "",
          "type": "address"
        }
      ],
      "name": "s_isEarlyBird",
      "outputs": [
        {
          "internalType": "bool",
          "name": "",
          "type": "bool"
        }
      ],
      "stateMutability": "view",
      "type": "function"
    },
    {
      "inputs": [],
      "name": "s_isSuccessful",
      "outputs": [
        {
          "internalType": "bool",
          "name": "",
          "type": "bool"
        }
      ],
      "stateMutability": "view",
      "type": "function"
    },
    {
      "inputs": [],
      "name": "s_isWithdrawn",
      "outputs": [
        {
          "internalType": "bool",
          "name": "",
          "type": "bool"
        }
      ],
      "stateMutability": "view",
      "type": "function"
    },
    {
      "inputs": [],
      "name": "s_raisedAmount",
      "outputs": [
        {
          "internalType": "uint256",
          "name": "",
          "type": "uint256"
        }
      ],
      "stateMutability": "view",
      "type": "function"
    },
    {
      "inputs": [],
      "name": "s_refundDeadline",
      "outputs": [
        {
          "internalType": "uint256",
          "name": "",
          "type": "uint256"
        }
      ],
      "stateMutability": "view",
      "type": "function"
    },
    {
      "inputs": [],
      "name": "s_token",
      "outputs": [
        {
          "internalType": "contract ProjectToken",
          "name": "",
          "type": "address"
        }
      ],
      "stateMutability": "view",
      "type": "function"
    },
    {
      "inputs": [],
      "name": "withdrawFunds",
      "outputs": [],
      "stateMutability": "nonpayable",
      "type": "function"
    },
    {
      "stateMutability": "payable",
      "type": "receive"
    }
  ],
  "bytecode": "0x60c06040523480156200001157600080fd5b5060405162002dac38038062002dac83398181016040528101906200003791906200027c565b60016000819055506000851162000085576040517f08c379a00000000000000000000000000000000000000000000000000000000081526004016200007c9062000365565b60405180910390fd5b600073ffffffffffffffffffffffffffffffffffffffff168373ffffffffffffffffffffffffffffffffffffffff1603620000f7576040517f08c379a0000000000000000000000000000000000000000000000000000000008152600401620000ee90620003d7565b60405180910390fd5b3373ffffffffffffffffffffffffffffffffffffffff1660808173ffffffffffffffffffffffffffffffffffffffff16815250508460a08181525050834262000141919062000428565b60018190555082600760006101000a81548173ffffffffffffffffffffffffffffffffffffffff021916908373ffffffffffffffffffffffffffffffffffffffff16021790555081600881905550806009819055506000600360006101000a81548160ff0219169083151502179055506000600360016101000a81548160ff021916908315150217905550505050505062000463565b600080fd5b6000819050919050565b620001f181620001dc565b8114620001fd57600080fd5b50565b6000815190506200021181620001e6565b92915050565b600073ffffffffffffffffffffffffffffffffffffffff82169050919050565b6000620002448262000217565b9050919050565b620002568162000237565b81146200026257600080fd5b50565b60008151905062000276816200024b565b92915050565b600080600080600060a086880312156200029b576200029a620001d7565b5b6000620002ab8882890162000200565b9550506020620002be8882890162000200565b9450506040620002d18882890162000265565b9350506060620002e48882890162000200565b9250506080620002f78882890162000200565b9150509295509295909350565b600082825260208201905092915050565b7f476f616c206d75737420626520706f7369746976650000000000000000000000600082015250565b60006200034d60158362000304565b91506200035a8262000315565b602082019050919050565b6000602082019050818103600083015262000380816200033e565b9050919050565b7f496e76616c696420746f6b656e20616464726573730000000000000000000000600082015250565b6000620003bf60158362000304565b9150620003cc8262000387565b602082019050919050565b60006020820190508181036000830152620003f281620003b0565b9050919050565b7f4e487b7100000000000000000000000000000000000000000000000000000000600052601160045260246000fd5b60006200043582620001dc565b91506200044283620001dc565b92508282019050808211156200045d576200045c620003f9565b5b92915050565b60805160a0516128dd620004cf60003960008181610f2101528181610fd1015281816114c501528181611608015281816116dc0152611b48015260008181610b1401528181610cee01528181610db801528181610e48015281816113f3015261176d01526128dd6000f3fe6080604052600436106102135760003560e01c80636c676d9211610118578063a9239881116100a0578063c553bfef1161006f578063c553bfef146107aa578063d6290cd7146107e7578063dba6335f14610817578063e8b5e51f14610842578063efb98bcf1461084c57610276565b8063a9239881146106fd578063af157c1914610728578063b97a7d2414610753578063c0a1631f1461077e57610276565b8063893d20e8116100e7578063893d20e8146106285780638e75e48214610653578063960524e31461067e578063a1211bc0146106a9578063a1775822146106c057610276565b80636c676d92146105585780636e99d52f14610595578063875c3a66146105c0578063889a55af146105fd57610276565b806338ea45fc1161019b57806356e779a51161016a57806356e779a514610495578063590e1ae3146104c05780635f8d96de146104d757806365156b31146105025780636739a0f21461052d57610276565b806338ea45fc146103e95780633da8c3a71461041457806348816b3f1461043f578063489e757f1461046a57610276565b80631c4c8a86116101e25780631c4c8a86146103275780631e8c4d421461036557806324600fc31461039057806327ad7a5d146103a75780632f73de31146103d257610276565b806307266aa81461027b5780630cfc2fc5146102a657806312065fe0146102d157806319c16544146102fc57610276565b36610276573073ffffffffffffffffffffffffffffffffffffffff1663e8b5e51f6040518163ffffffff1660e01b8152600401600060405180830381600087803b15801561026057600080fd5b505af1158015610274573d6000803e3d6000fd5b005b600080fd5b34801561028757600080fd5b50610290610877565b60405161029d9190611c6c565b60405180910390f35b3480156102b257600080fd5b506102bb61088e565b6040516102c89190611c6c565b60405180910390f35b3480156102dd57600080fd5b506102e66108a1565b6040516102f39190611ca0565b60405180910390f35b34801561030857600080fd5b506103116108a9565b60405161031e9190611ca0565b60405180910390f35b34801561033357600080fd5b5061034e60048036038101906103499190611d1e565b6108b3565b60405161035c929190611ddb565b60405180910390f35b34801561037157600080fd5b5061037a610b0c565b6040516103879190611ca0565b60405180910390f35b34801561039c57600080fd5b506103a5610b12565b005b3480156103b357600080fd5b506103bc610e2f565b6040516103c99190611c6c565b60405180910390f35b3480156103de57600080fd5b506103e7610e46565b005b3480156103f557600080fd5b506103fe610fac565b60405161040b9190611ca0565b60405180910390f35b34801561042057600080fd5b50610429610fb2565b6040516104369190611c6c565b60405180910390f35b34801561044b57600080fd5b50610454610fc5565b6040516104619190611ca0565b60405180910390f35b34801561047657600080fd5b5061047f610fcf565b60405161048c9190611ca0565b60405180910390f35b3480156104a157600080fd5b506104aa610ff3565b6040516104b79190611ca0565b60405180910390f35b3480156104cc57600080fd5b506104d5610ff9565b005b3480156104e357600080fd5b506104ec611374565b6040516104f99190611ca0565b60405180910390f35b34801561050e57600080fd5b5061051761137e565b6040516105249190611e6a565b60405180910390f35b34801561053957600080fd5b506105426113a4565b60405161054f9190611ca0565b60405180910390f35b34801561056457600080fd5b5061057f600480360381019061057a9190611d1e565b6113aa565b60405161058c9190611c6c565b60405180910390f35b3480156105a157600080fd5b506105aa6113ca565b6040516105b79190611ca0565b60405180910390f35b3480156105cc57600080fd5b506105e760048036038101906105e29190611d1e565b6113d1565b6040516105f49190611ca0565b60405180910390f35b34801561060957600080fd5b506106126113e9565b60405161061f9190611ca0565b60405180910390f35b34801561063457600080fd5b5061063d6113ef565b60405161064a9190611e94565b60405180910390f35b34801561065f57600080fd5b50610668611417565b6040516106759190611ca0565b60405180910390f35b34801561068a57600080fd5b50610693611421565b6040516106a09190611ca0565b60405180910390f35b3480156106b557600080fd5b506106be61142e565b005b3480156106cc57600080fd5b506106e760048036038101906106e29190611d1e565b611550565b6040516106f49190611c6c565b60405180910390f35b34801561070957600080fd5b50610712611570565b60405161071f9190611ca0565b60405180910390f35b34801561073457600080fd5b5061073d611576565b60405161074a9190611f6d565b60405180910390f35b34801561075f57600080fd5b50610768611604565b6040516107759190611ca0565b60405180910390f35b34801561078a57600080fd5b5061079361162c565b6040516107a1929190611f8f565b60405180910390f35b3480156107b657600080fd5b506107d160048036038101906107cc9190611fe4565b611692565b6040516107de9190611e94565b60405180910390f35b3480156107f357600080fd5b506107fc6116d1565b60405161080e96959493929190612011565b60405180910390f35b34801561082357600080fd5b5061082c61176b565b6040516108399190611e94565b60405180910390f35b61084a61178f565b005b34801561085857600080fd5b50610861611bd0565b60405161086e9190611ca0565b60405180910390f35b6000600360009054906101000a900460ff16905090565b600360019054906101000a900460ff1681565b600047905090565b6000600954905090565b600060606001544210156109025760006040518060400160405280601a81526020017f43616d706169676e20686173206e6f7420656e6465642079657400000000000081525091509150610b07565b600560008473ffffffffffffffffffffffffffffffffffffffff1673ffffffffffffffffffffffffffffffffffffffff16815260200190815260200160002060009054906101000a900460ff16156109955760006040518060400160405280601081526020017f416c726561647920726566756e6465640000000000000000000000000000000081525091509150610b07565b6000600460008573ffffffffffffffffffffffffffffffffffffffff1673ffffffffffffffffffffffffffffffffffffffff1681526020019081526020016000205403610a1d5760006040518060400160405280600d81526020017f4e6f20696e766573746d656e740000000000000000000000000000000000000081525091509150610b07565b600360009054906101000a900460ff16610a725760016040518060400160405280601b81526020017f43616d706169676e206661696c65642c2063616e20726566756e64000000000081525091509150610b07565b62093a80600154610a8391906120a1565b4211610aca5760016040518060400160405280601681526020017f447572696e6720636f6f6c646f776e20706572696f640000000000000000000081525091509150610b07565b60006040518060400160405280601581526020017f526566756e6420706572696f6420657870697265640000000000000000000000815250915091505b915091565b600a5481565b7f000000000000000000000000000000000000000000000000000000000000000073ffffffffffffffffffffffffffffffffffffffff163373ffffffffffffffffffffffffffffffffffffffff1614610ba0576040517f08c379a0000000000000000000000000000000000000000000000000000000008152600401610b9790612121565b60405180910390fd5b600154421015610be5576040517f08c379a0000000000000000000000000000000000000000000000000000000008152600401610bdc9061218d565b60405180910390fd5b610bed611bf8565b600360009054906101000a900460ff16610c3c576040517f08c379a0000000000000000000000000000000000000000000000000000000008152600401610c33906121f9565b60405180910390fd5b600360019054906101000a900460ff1615610c8c576040517f08c379a0000000000000000000000000000000000000000000000000000000008152600401610c8390612265565b60405180910390fd5b60004711610ccf576040517f08c379a0000000000000000000000000000000000000000000000000000000008152600401610cc6906122d1565b60405180910390fd5b6001600360016101000a81548160ff02191690831515021790555060007f000000000000000000000000000000000000000000000000000000000000000073ffffffffffffffffffffffffffffffffffffffff1647604051610d3090612322565b60006040518083038185875af1925050503d8060008114610d6d576040519150601f19603f3d011682016040523d82523d6000602084013e610d72565b606091505b5050905080610db6576040517f08c379a0000000000000000000000000000000000000000000000000000000008152600401610dad90612383565b60405180910390fd5b7f000000000000000000000000000000000000000000000000000000000000000073ffffffffffffffffffffffffffffffffffffffff167f7084f5476618d8e60b11ef0d7d3f06914655adb8793e28ff7f018d4c76d505d547604051610e1c9190611ca0565b60405180910390a250610e2d611c47565b565b6000600360019054906101000a900460ff16905090565b7f000000000000000000000000000000000000000000000000000000000000000073ffffffffffffffffffffffffffffffffffffffff163373ffffffffffffffffffffffffffffffffffffffff1614610ed4576040517f08c379a0000000000000000000000000000000000000000000000000000000008152600401610ecb90612121565b60405180910390fd5b6001544210610f18576040517f08c379a0000000000000000000000000000000000000000000000000000000008152600401610f0f906123ef565b60405180910390fd5b426001819055507f000000000000000000000000000000000000000000000000000000000000000060025410610f64576001600360006101000a81548160ff0219169083151502179055505b7f170c266b6c51c5ee0e58a9ff23f733b295ff6c6b28f3c61a2ed3dc74a0902f2d600360009054906101000a900460ff16604051610fa29190611c6c565b60405180910390a1565b60025481565b600360009054906101000a900460ff1681565b6000600854905090565b7f000000000000000000000000000000000000000000000000000000000000000081565b60015481565b60015442101561103e576040517f08c379a00000000000000000000000000000000000000000000000000000000081526004016110359061218d565b60405180910390fd5b611046611bf8565b600560003373ffffffffffffffffffffffffffffffffffffffff1673ffffffffffffffffffffffffffffffffffffffff16815260200190815260200160002060009054906101000a900460ff16156110d3576040517f08c379a00000000000000000000000000000000000000000000000000000000081526004016110ca9061245b565b60405180910390fd5b6000600460003373ffffffffffffffffffffffffffffffffffffffff1673ffffffffffffffffffffffffffffffffffffffff1681526020019081526020016000205490506000811161115a576040517f08c379a0000000000000000000000000000000000000000000000000000000008152600401611151906124c7565b60405180910390fd5b6000600360009054906101000a900460ff166111795760019050611190565b62093a8060015461118a91906120a1565b42111590505b806111d0576040517f08c379a00000000000000000000000000000000000000000000000000000000081526004016111c790612533565b60405180910390fd5b6001600560003373ffffffffffffffffffffffffffffffffffffffff1673ffffffffffffffffffffffffffffffffffffffff16815260200190815260200160002060006101000a81548160ff0219169083151502179055506000600460003373ffffffffffffffffffffffffffffffffffffffff1673ffffffffffffffffffffffffffffffffffffffff1681526020019081526020016000208190555060003373ffffffffffffffffffffffffffffffffffffffff168360405161129390612322565b60006040518083038185875af1925050503d80600081146112d0576040519150601f19603f3d011682016040523d82523d6000602084013e6112d5565b606091505b5050905080611319576040517f08c379a00000000000000000000000000000000000000000000000000000000081526004016113109061259f565b60405180910390fd5b3373ffffffffffffffffffffffffffffffffffffffff167fd7dee2702d63ad89917b6a4da9981c90c4d24f8c2bdfd64c604ecae57d8d06518460405161135f9190611ca0565b60405180910390a2505050611372611c47565b565b6000600154905090565b600760009054906101000a900473ffffffffffffffffffffffffffffffffffffffff1681565b600c5481565b60056020528060005260406000206000915054906101000a900460ff1681565b62093a8081565b60046020528060005260406000206000915090505481565b60085481565b60007f0000000000000000000000000000000000000000000000000000000000000000905090565b6000600254905090565b6000600680549050905090565b600154421015611473576040517f08c379a000000000000000000000000000000000000000000000000000000000815260040161146a9061218d565b60405180910390fd5b600360009054906101000a900460ff16156114c3576040517f08c379a00000000000000000000000000000000000000000000000000000000081526004016114ba9061260b565b60405180910390fd5b7f000000000000000000000000000000000000000000000000000000000000000060025410611508576001600360006101000a81548160ff0219169083151502179055505b7f170c266b6c51c5ee0e58a9ff23f733b295ff6c6b28f3c61a2ed3dc74a0902f2d600360009054906101000a900460ff166040516115469190611c6c565b60405180910390a1565b600b6020528060005260406000206000915054906101000a900460ff1681565b60095481565b606060068054806020026020016040519081016040528092919081815260200182805480156115fa57602002820191906000526020600020905b8160009054906101000a900473ffffffffffffffffffffffffffffffffffffffff1673ffffffffffffffffffffffffffffffffffffffff16815260200190600101908083116115b0575b5050505050905090565b60007f0000000000000000000000000000000000000000000000000000000000000000905090565b60008062093a8060015461164091906120a1565b42118061165a5750600360009054906101000a900460ff16155b1561166b576000809150915061168e565b4262093a8060015461167d91906120a1565b611687919061262b565b6001915091505b9091565b600681815481106116a257600080fd5b906000526020600020016000915054906101000a900473ffffffffffffffffffffffffffffffffffffffff1681565b6000806000806000807f000000000000000000000000000000000000000000000000000000000000000060025460015442101561171b5742600154611716919061262b565b61171e565b60005b600680549050600360009054906101000a900460ff16600a5460085411611746576000611757565b600a54600854611756919061262b565b5b955095509550955095509550909192939495565b7f000000000000000000000000000000000000000000000000000000000000000081565b60015442106117d3576040517f08c379a00000000000000000000000000000000000000000000000000000000081526004016117ca906123ef565b60405180910390fd5b6117db611bf8565b6000341161181e576040517f08c379a0000000000000000000000000000000000000000000000000000000008152600401611815906126d1565b60405180910390fd5b6000670de0b6b3a7640000806127103461183891906126f1565b61184291906126f1565b61184c9190612762565b905060008190506000600854600a541080156118a757506000600460003373ffffffffffffffffffffffffffffffffffffffff1673ffffffffffffffffffffffffffffffffffffffff16815260200190815260200160002054145b1561194b57600190506001600b60003373ffffffffffffffffffffffffffffffffffffffff1673ffffffffffffffffffffffffffffffffffffffff16815260200190815260200160002060006101000a81548160ff021916908315150217905550600a600081548092919061191b90612793565b919050555061271060095461271061193391906120a1565b8461193e91906126f1565b6119489190612762565b91505b6000600460003373ffffffffffffffffffffffffffffffffffffffff1673ffffffffffffffffffffffffffffffffffffffff16815260200190815260200160002054036119f6576006339080600181540180825580915050600190039060005260206000200160009091909190916101000a81548173ffffffffffffffffffffffffffffffffffffffff021916908373ffffffffffffffffffffffffffffffffffffffff1602179055505b34600460003373ffffffffffffffffffffffffffffffffffffffff1673ffffffffffffffffffffffffffffffffffffffff1681526020019081526020016000206000828254611a4591906120a1565b925050819055503460026000828254611a5e91906120a1565b92505081905550600760009054906101000a900473ffffffffffffffffffffffffffffffffffffffff1673ffffffffffffffffffffffffffffffffffffffff166340c10f1933846040518363ffffffff1660e01b8152600401611ac29291906127db565b600060405180830381600087803b158015611adc57600080fd5b505af1158015611af0573d6000803e3d6000fd5b505050503373ffffffffffffffffffffffffffffffffffffffff167f25dd7e298b084f3a9ca8071f7815ded7e3483e4581456edd77d33fe4616898b5348484604051611b3e93929190612804565b60405180910390a27f000000000000000000000000000000000000000000000000000000000000000060025410611bc3576001600360006101000a81548160ff0219169083151502179055507f170c266b6c51c5ee0e58a9ff23f733b295ff6c6b28f3c61a2ed3dc74a0902f2d6001604051611bba9190611c6c565b60405180910390a15b505050611bce611c47565b565b60006001544210611be45760009050611bf5565b42600154611bf2919061262b565b90505b90565b600260005403611c3d576040517f08c379a0000000000000000000000000000000000000000000000000000000008152600401611c3490612887565b60405180910390fd5b6002600081905550565b6001600081905550565b60008115159050919050565b611c6681611c51565b82525050565b6000602082019050611c816000830184611c5d565b92915050565b6000819050919050565b611c9a81611c87565b82525050565b6000602082019050611cb56000830184611c91565b92915050565b600080fd5b600073ffffffffffffffffffffffffffffffffffffffff82169050919050565b6000611ceb82611cc0565b9050919050565b611cfb81611ce0565b8114611d0657600080fd5b50565b600081359050611d1881611cf2565b92915050565b600060208284031215611d3457611d33611cbb565b5b6000611d4284828501611d09565b91505092915050565b600081519050919050565b600082825260208201905092915050565b60005b83811015611d85578082015181840152602081019050611d6a565b60008484015250505050565b6000601f19601f8301169050919050565b6000611dad82611d4b565b611db78185611d56565b9350611dc7818560208601611d67565b611dd081611d91565b840191505092915050565b6000604082019050611df06000830185611c5d565b8181036020830152611e028184611da2565b90509392505050565b6000819050919050565b6000611e30611e2b611e2684611cc0565b611e0b565b611cc0565b9050919050565b6000611e4282611e15565b9050919050565b6000611e5482611e37565b9050919050565b611e6481611e49565b82525050565b6000602082019050611e7f6000830184611e5b565b92915050565b611e8e81611ce0565b82525050565b6000602082019050611ea96000830184611e85565b92915050565b600081519050919050565b600082825260208201905092915050565b6000819050602082019050919050565b611ee481611ce0565b82525050565b6000611ef68383611edb565b60208301905092915050565b6000602082019050919050565b6000611f1a82611eaf565b611f248185611eba565b9350611f2f83611ecb565b8060005b83811015611f60578151611f478882611eea565b9750611f5283611f02565b925050600181019050611f33565b5085935050505092915050565b60006020820190508181036000830152611f878184611f0f565b905092915050565b6000604082019050611fa46000830185611c91565b611fb16020830184611c5d565b9392505050565b611fc181611c87565b8114611fcc57600080fd5b50565b600081359050611fde81611fb8565b92915050565b600060208284031215611ffa57611ff9611cbb565b5b600061200884828501611fcf565b91505092915050565b600060c0820190506120266000830189611c91565b6120336020830188611c91565b6120406040830187611c91565b61204d6060830186611c91565b61205a6080830185611c5d565b61206760a0830184611c91565b979650505050505050565b7f4e487b7100000000000000000000000000000000000000000000000000000000600052601160045260246000fd5b60006120ac82611c87565b91506120b783611c87565b92508282019050808211156120cf576120ce612072565b5b92915050565b7f4f6e6c792070726f6a656374206f776e65722063616e2063616c6c0000000000600082015250565b600061210b601b83611d56565b9150612116826120d5565b602082019050919050565b6000602082019050818103600083015261213a816120fe565b9050919050565b7f43616d706169676e20686173206e6f7420656e64656420796574000000000000600082015250565b6000612177601a83611d56565b915061218282612141565b602082019050919050565b600060208201905081810360008301526121a68161216a565b9050919050565b7f43616d706169676e206973206e6f74207375636365737366756c000000000000600082015250565b60006121e3601a83611d56565b91506121ee826121ad565b602082019050919050565b60006020820190508181036000830152612212816121d6565b9050919050565b7f46756e647320616c72656164792077697468647261776e000000000000000000600082015250565b600061224f601783611d56565b915061225a82612219565b602082019050919050565b6000602082019050818103600083015261227e81612242565b9050919050565b7f4e6f2066756e647320746f207769746864726177000000000000000000000000600082015250565b60006122bb601483611d56565b91506122c682612285565b602082019050919050565b600060208201905081810360008301526122ea816122ae565b9050919050565b600081905092915050565b50565b600061230c6000836122f1565b9150612317826122fc565b600082019050919050565b600061232d826122ff565b9150819050919050565b7f5472616e73666572206661696c65640000000000000000000000000000000000600082015250565b600061236d600f83611d56565b915061237882612337565b602082019050919050565b6000602082019050818103600083015261239c81612360565b9050919050565b7f43616d706169676e2068617320656e6465640000000000000000000000000000600082015250565b60006123d9601283611d56565b91506123e4826123a3565b602082019050919050565b60006020820190508181036000830152612408816123cc565b9050919050565b7f416c726561647920726566756e64656400000000000000000000000000000000600082015250565b6000612445601083611d56565b91506124508261240f565b602082019050919050565b6000602082019050818103600083015261247481612438565b9050919050565b7f4e6f20696e766573746d656e7420746f20726566756e64000000000000000000600082015250565b60006124b1601783611d56565b91506124bc8261247b565b602082019050919050565b600060208201905081810360008301526124e0816124a4565b9050919050565b7f526566756e6420706572696f6420657870697265640000000000000000000000600082015250565b600061251d601583611d56565b9150612528826124e7565b602082019050919050565b6000602082019050818103600083015261254c81612510565b9050919050565b7f526566756e64206661696c656400000000000000000000000000000000000000600082015250565b6000612589600d83611d56565b915061259482612553565b602082019050919050565b600060208201905081810360008301526125b88161257c565b9050919050565b7f43616d706169676e20616c72656164792066696e616c697a6564000000000000600082015250565b60006125f5601a83611d56565b9150612600826125bf565b602082019050919050565b60006020820190508181036000830152612624816125e8565b9050919050565b600061263682611c87565b915061264183611c87565b925082820390508181111561265957612658612072565b5b92915050565b7f496e766573746d656e74206d7573742062652067726561746572207468616e2060008201527f3000000000000000000000000000000000000000000000000000000000000000602082015250565b60006126bb602183611d56565b91506126c68261265f565b604082019050919050565b600060208201905081810360008301526126ea816126ae565b9050919050565b60006126fc82611c87565b915061270783611c87565b925082820261271581611c87565b9150828204841483151761272c5761272b612072565b5b5092915050565b7f4e487b7100000000000000000000000000000000000000000000000000000000600052601260045260246000fd5b600061276d82611c87565b915061277883611c87565b92508261278857612787612733565b5b828204905092915050565b600061279e82611c87565b91507fffffffffffffffffffffffffffffffffffffffffffffffffffffffffffffffff82036127d0576127cf612072565b5b600182019050919050565b60006040820190506127f06000830185611e85565b6127fd6020830184611c91565b9392505050565b60006060820190506128196000830186611c91565b6128266020830185611c91565b6128336040830184611c5d565b949350505050565b7f5265656e7472616e637947756172643a207265656e7472616e742063616c6c00600082015250565b6000612871601f83611d56565b915061287c8261283b565b602082019050919050565b600060208201905081810360008301526128a081612864565b905091905056fea26469706673582212201855df8d55ec9de1a07df05205f46f06e2ba5f64c3556d0470a7ea78a703a9a664736f6c63430008120033",
  "linkReferences": {},
  "deployedLinkReferences": {}
}